:020000040800F2
:100000000000022029900008616B00086D6B000859
:10001000756B00087D6B0008856B00080000000010
:100020000000000000000000000000008D6B0008D0
:10003000996B000800000000A56B0008B16B000878
:100040008390000885900008879000088990000838
:100050008B9000088D9000088F9000089190000808
:1000600093900008959000089790000899900008D8
:100070009B9000089D90000881210008A190000835
:100080000D1F0008A5900008A7900008A99000087F
:10009000AB900008AD900008AF900008B190000848
:1000A000B3900008B5900008B7900008B990000818
:1000B000C5120008BD900008BF900008C19000085C
:1000C000C3900008C5900008C7900008C9900008B8
:1000D000CB900008C1250008150D00082168000814
:1000E000D3900008D5900008D7900008D990000858
:1000F000DB900008DD900008DF900008E190000828
:10010000E3900008E5900008E7900008E9900008F7
:10011000EB900008ED9000085111000899120008BA
:10012000ED100008F5900008A5240008F9900008DB
:10013000FB900008FD900008FF9000080191000866
:10014000039100080591000807910008BD6B0008A5
:100150000B9100080D9100080F910008050F000891
:1001600013910008159100081791000819910008D3
:100170001B9100081D9100081F91000821910008A3
:10018000239100082591000810B5054C237833B958
:10019000044B13B10448AFF300800123237010BD5A
:1001A000780A00200000000084EF000808B5064B24
:1001B0001BB106480649AFF300800648036813B137
:1001C000054B03B1984708BD0000000084EF00080C
:1001D0007C0A0020780A002000000000154B002B4C
:1001E00008BF134B9D46A3F5803A00218B460F466E
:1001F0001348144A121A09F053FE0F4B002B00D07B
:1002000098470E4B002B00D0984700200021040097
:100210000D000D48002802D00C480BF013FA09F02D
:100220007DFD2000290008F0A5FE09F067FD00BF54
:100230000000080000000220000000000000000094
:10024000780A0020081D002045B6000801C60008F5
:1002500080B58AB000AF07F063F94FF000033B624E
:100260004FF000033B614FF001037B754FF000033B
:10027000FB614FF0020387F824304FF001033B7518
:1002800007F110034FF40050C4F20100194607F0C3
:1002900057F94FF000033B604FF000037B604FF0D5
:1002A0000003FB604FF00003BB603B46184607F0BD
:1002B000A3F94FF40050C4F201004FF00C014FF0CD
:1002C00002024FF0070307F0E1F94FF40050C4F2C7
:1002D00001004FF00B014FF001024FF0070307F050
:1002E000D5F94FF40050C4F201004FF0010107F0BE
:1002F000D7FA4FF40050C4F201004FF0010107F0AB
:10030000B3FA4FF40050C4F201004FF0010107F0BE
:10031000A1F94FF40050C4F2010007F095FA07F17B
:100320002807BD4680BD00BF80B590B000AF46F243
:100330007040C4F2020007F0CFFA4FF000037B6078
:1003400042F24C03C4F20103BB6040F62433C2F214
:100350000003FB604FF000033B614FF002037B6141
:100360004FF00003BB614FF48063FB614FF4006307
:100370003B624FF400537B624FF48073BB624FF4D7
:100380000033FB624FF000033B634FF001037B63DC
:100390004FF00003BB634FF00003FB6307F104035E
:1003A00046F27040C4F20200194607F0B7FB46F26D
:1003B0007040C4F202004FF0010107F007FC07F1A2
:1003C0004007BD4680BD00BF80B485B000AF7860F7
:1003D0007B6893ED037A7B68D3ED047A77EE677AD6
:1003E000C7ED037A7B68D3ED057A97ED037A77EE54
:1003F000677AC7ED027A7B68FA685A617B6893ED89
:10040000067AD7ED037A77EE277A7B68C3ED067A12
:100410007B6893ED067A7B68D3ED077AB4EEE77AD2
:10042000F1EE10FA03DD7B68DA697B689A617B681C
:1004300093ED067A7B68D3ED077AF1EE677AB4EE36
:10044000E77AF1EE10FA07D57B68D3ED077AF1EE83
:10045000677A7B68C3ED067A7B6893F83030002BAF
:1004600000F098807B6893ED007AD7ED037A27EE51
:10047000277A7B68D3ED016A7B68D3ED067A66EE56
:10048000A77A37EE277A7B68D3ED026AD7ED027A36
:1004900066EEA77A77EE277A7B68C3ED0B7A7B68E6
:1004A00093ED0B7A7B68D3ED087AB4EEE77AF1EE40
:1004B00010FA04DD7B681A6A7B68DA6214E07B68F4
:1004C00093ED0B7A7B68D3ED087AF1EE677AB4EEA0
:1004D000E77AF1EE10FA07D57B68D3ED087AF1EEF2
:1004E000677A7B68C3ED0B7A7B6893ED0B7A7B6848
:1004F000D3ED097AB4EEE77AF1EE10FA10D57B6805
:1005000093ED0B7A7B68D3ED097AF1EE677AB4EE5E
:10051000E77AF1EE10FA03DD7B684FF00002DA6251
:100520007B6893ED0B7A7B68D3ED0F7AB4EEE77AB4
:10053000F1EE10FA28D87B6893ED0B7A7B68D3ED47
:100540000F7AF1EE677AB4EEE77AF1EE10FA1BDB80
:100550007B6893ED0E7AD7ED037AB4EEE77AF1EE8D
:1005600010FA11DB7B68D3ED0E7AB1EE677AD7ED26
:10057000037AB4EEE77AF1EE10FA05D87B684FF013
:10058000010283F831200EE07B684FF0000283F80F
:10059000312008E07B684FF00002DA627B684FF0A0
:1005A000000283F831207B68DA6A7B68DA6207F13F
:1005B0001407BD4680BC704780B582B000AF4FF0D5
:1005C0000003FB7163E0F979FA7940F6B033C2F2C7
:1005D00000034FEA82029B181A6840F63033C2F2D9
:1005E00000034FEA81115B1803F10C031A6040F21B
:1005F0000003C2F200035A6A40F63033C2F200032D
:100600001A6540F20003C2F200031A6940F6303363
:10061000C2F200031A6140F20003C2F200031B6839
:10062000012B30D1FB794FEA831240F63033C2F20E
:100630000003D3181846FFF7C7FEFB79012B0FD133
:1006400040F63033C2F20003D3ED1B7AF1EE677A45
:10065000FDEEE77A40F20003C2F20003C3ED0C7A2C
:10066000FB79002B0FD140F63033C2F20003D3EDFB
:100670000B7AF1EE677AFDEEE77A40F20003C2F200
:100680000003C3ED077AFB7903F10103FB71FB79EA
:10069000012B98D907F10807BD4680BD80B483B00F
:1006A00000AF4FF000037B604FF000037B6084E0FD
:1006B00040F63033C2F200037A684FEA82129B1888
:1006C0004FF00002C4F2FA421A6040F63033C2F230
:1006D00000037A684FEA82129B1803F1040346F282
:1006E0006662C3F686721A6040F63033C2F20003C7
:1006F0007A684FEA82129B1803F108034FF07E528A
:100700001A6040F63033C2F200037A684FEA821270
:100710009B1803F130034FF001021A7040F630339A
:10072000C2F200037A684FEA82129B1803F1380381
:100730004FF00002C4F240021A6040F63033C2F2B9
:1007400000037A684FEA82129B1803F13C034FF0D2
:100750000002C4F27A421A6040F63033C2F200035B
:100760007A684FEA82129B1803F11C034FF00002D3
:10077000C4F248221A6040F63033C2F200037A68AD
:100780004FEA82129B1803F120034FF00002C4F2DB
:10079000FA321A6040F63033C2F200037A684FEA48
:1007A00082129B1803F124034FF00002C4F2A0123E
:1007B0001A607B6803F101037B607B68022B7FF783
:1007C00077AF07F10C07BD4680BC704780B586B097
:1007D00000AF4FF003004FF0010107F0D3FC4FF0E2
:1007E00002033B754FF00103FB754FF0C0033B6103
:1007F00007F110034FF00000C4F20200194607F0A1
:1008000091FA4FF420633B6107F110034FF48050DD
:10081000C4F20200194607F085FA4FF00000C4F256
:1008200002004FF006014FF0020207F01DFB4FF0EF
:100830000000C4F202004FF007014FF0020207F07F
:1008400013FB4FF48050C4F202004FF009014FF047
:10085000010207F009FB4FF48050C4F202004FF090
:100860000B014FF0010207F0FFFA4FF48060C4F271
:1008700000004FF0FF3107F08BFD4FF00000C4F295
:1008800001004FF0FF3107F083FD4FF00000C4F28C
:1008900001004FF003014FF000024FF0000307F09A
:1008A00017FF4FF48060C4F200004FF003014FF0D7
:1008B00000024FF0000307F00BFF4FF00003BB8076
:1008C0004FF00F03BB814FF00A03FB804FF0000392
:1008D0007B814FF003033B8107F104034FF00000DD
:1008E000C4F20100194607F08DFD07F104034FF42F
:1008F0008060C4F20000194607F084FD4FF000004C
:10090000C4F201004FF0010107F05CFD4FF480607C
:10091000C4F200004FF0010107F054FD00F004F8AC
:1009200007F11807BD4680BD80B500AF72B640F62E
:100930009423C2F200034FF000021A8040F696237F
:10094000C2F200034FF000021A8040F6D033C2F228
:1009500000034FF000021A6040F6CC33C2F20003ED
:100960004FF000021A6040F6BC33C2F200034FF0B1
:1009700000021A6040F6C433C2F200034FF00002D6
:100980001A604FF00000C4F201004FF0000107F0C0
:10099000F1FC4FF48060C4F200004FF0000107F05A
:1009A000E9FC00F003F862B680BD00BF80B500AF7F
:1009B00040F69823C2F200031B889AB240F69423B3
:1009C000C2F200031A804FF00000C4F2010007F0E9
:1009D000EDFC03469AB240F69823C2F200031A8057
:1009E00040F69A23C2F200031B889AB240F696237F
:1009F000C2F200031A804FF48060C4F2000007F0D6
:100A0000D5FC03469BB2C3F100039BB29AB240F6F9
:100A10009A23C2F200031A8040F69823C2F2000320
:100A20001B889BB29AB240F69423C2F200031B8843
:100A30009BB29BB2D31A9BB29AB240F6C833C2F2B1
:100A400000031A8040F69A23C2F200031B889BB26F
:100A50009AB240F69623C2F200031B889BB29BB267
:100A6000D31A9BB29AB240F6D433C2F200031A8072
:100A700040F6C833C2F200031B889BB29AB240F61C
:100A8000D433C2F200031B889BB29BB2D3189BB233
:100A90009AB240F6C033C2F200031A8040F6D43353
:100AA000C2F200031B889BB29AB240F6C833C2F26E
:100AB00000031B889BB29BB2D31A9BB29AB240F63A
:100AC000B833C2F200031A8040F6C033C2F200030A
:100AD0001B889BB21BB207EE903AB8EEE77A40F65D
:100AE000BC33C2F20003D3ED007A77EE277A40F6EA
:100AF000BC33C2F20003C3ED007A40F6B833C2F251
:100B000000031B889BB21BB207EE903AB8EEE77A5F
:100B100040F6C433C2F20003D3ED007A77EE277AB1
:100B200040F6C433C2F20003C3ED007A40F6C83386
:100B3000C2F200031B889BB21BB207EE903AB8EEDC
:100B4000E77A40F6D033C2F20003D3ED007A77EEB5
:100B5000277A40F6D033C2F20003C3ED007A40F6A4
:100B6000D433C2F200031B889BB21BB207EE903A4B
:100B7000B8EEE77A40F6CC33C2F20003D3ED007A48
:100B800077EE277A40F6CC33C2F20003C3ED007A49
:100B900080BD00BF80B58AB000AF4FF004004FF0B9
:100BA000010107F09BFA4FF400533B624FF0010341
:100BB00087F824304FF0000387F827304FF0000308
:100BC00087F826304FF0030387F8253007F120031C
:100BD0004FF40060C4F20200194607F0A3F84FF08A
:100BE00001004FF0010107F079FA4FF007033B6273
:100BF0004FF0020387F8243007F120034FF0000084
:100C0000C4F20200194607F08DF84FF00000C4F25C
:100C100002004FF000014FF0010207F025F94FF0FC
:100C20000000C4F202004FF001014FF0010207F092
:100C30001BF94FF00000C4F202004FF002014FF028
:100C4000010207F011F94FF001004FF0010107F028
:100C500099FA4FF07E03BB824FF00003FB824FF600
:100C6000FF73BB614FF00003BB834FF00003BB7702
:100C700007F114034FF08040194607F001FB4FF0D5
:100C800080404FF0010107F06DFD4FF080404FF0C4
:100C9000400107F0E5FC4FF080404FF0040107F001
:100CA000FBFC4FF000033B814FF00F033B824FF002
:100CB0000A037B814FF00003FB814FF00303BB81EC
:100CC00007F108034FF08040194607F09BFB4FF0F7
:100CD00080404FF002014FF0010207F05BFC4FF043
:100CE0001C033B714FF001037B714FF00103BB719B
:100CF0004FF00103FB7107F10403184606F09EFB59
:100D00004FF080404FF0010107F05CFB07F128072E
:100D1000BD4680BD80B500AF4FF48840C4F20000EE
:100D200040F2266107F0D2FF0346002B00F0E88076
:100D30004FF48840C4F2000040F2266108F028F821
:100D400040F25C03C2F200031B68002B11D140F299
:100D50006403C2F200031B689BB26FEA03039BB2F9
:100D6000DBB29BB24FF48840C4F20000194607F092
:100D700035FF40F25C03C2F200031B68012B11D166
:100D800040F26403C2F200031B689BB26FEA0303E4
:100D90009BB2DBB29BB24FF48840C4F2000019460C
:100DA00007F01CFF40F25C03C2F200031B68022B39
:100DB00007D14FF48840C4F200004FF4807107F06F
:100DC0000DFF40F25C03C2F200031B68032B0ED13F
:100DD00040F20003C2F20003DB699BB2DBB29BB2BC
:100DE0004FF48840C4F20000194607F0F7FE40F2C5
:100DF0005C03C2F200031B68042B10D140F2000315
:100E0000C2F20003DB694FEA23239BB2DBB29BB241
:100E10004FF48840C4F20000194607F0DFFE40F2AC
:100E20005C03C2F200031B68052B0ED140F20003E5
:100E3000C2F20003DB699BB2DBB29BB24FF4884085
:100E4000C4F20000194607F0C9FE40F25C03C2F28A
:100E500000031B68062B10D140F20003C2F200030E
:100E6000DB694FEA23239BB2DBB29BB24FF488408D
:100E7000C4F20000194607F0B1FE40F25C03C2F272
:100E800000031B68072B21D14FF48840C4F20000F7
:100E90004FF0550107F0A2FE40F26403C2F20003D6
:100EA0001B6803F1FF3240F26403C2F200031A60D0
:100EB00040F26403C2F200031B68002B06D140F22B
:100EC0006403C2F200034FF0FF021A6040F25C03B9
:100ED000C2F200031B6803F1010240F25C03C2F29C
:100EE00000031A6040F25C03C2F200031B68072B88
:100EF00006DD40F25C03C2F200034FF000021A600C
:100F000080BD00BF80B500AF4FF4A050C4F2010017
:100F100040F2266107F0DAFE0346002B00F0E48081
:100F20004FF4A050C4F2010040F2266107F030FFF8
:100F300040F26003C2F200031B68002B11D140F2A3
:100F40006803C2F200031B689BB26FEA03039BB203
:100F5000DBB29BB24FF4A050C4F20100194607F077
:100F60003DFE40F26003C2F200031B68012B11D169
:100F700040F26803C2F200031B689BB26FEA0303EE
:100F80009BB2DBB29BB24FF4A050C4F201001946F1
:100F900007F024FE40F26003C2F200031B68022B3C
:100FA00007D14FF4A050C4F201004FF4807107F054
:100FB00015FE40F26003C2F200031B68032B0ED142
:100FC00040F20003C2F200031B6B9BB2DBB29BB288
:100FD0004FF4A050C4F20100194607F0FFFD40F2A3
:100FE0006003C2F200031B68042B10D140F200031F
:100FF000C2F200031B6B4FEA23239BB2DBB29BB20E
:101000004FF4A050C4F20100194607F0E7FD40F28A
:101010006003C2F200031B68052B0ED140F20003EF
:10102000C2F200031B6B9BB2DBB29BB24FF4A05029
:10103000C4F20100194607F0D1FD40F26003C2F28C
:1010400000031B68062B10D140F20003C2F200031C
:101050001B6B4FEA23239BB2DBB29BB24FF4A05031
:10106000C4F20100194607F0B9FD40F26003C2F274
:1010700000031B68072B1DD14FF4A050C4F20100E0
:101080004FF0550107F0AAFD40F26803C2F20003D9
:101090001B685C2B07D140F26803C2F200034FF0DB
:1010A0005A021A6006E040F26803C2F200034FF0F1
:1010B0005C021A6040F26003C2F200031B6803F195
:1010C000010240F26003C2F200031A6040F26003C2
:1010D000C2F200031B68072B06DD40F26003C2F278
:1010E00000034FF000021A6080BD00BF80B500AF62
:1010F00046F21040C4F2020044F21001C1F20001B5
:1011000006F080FD0346002B09D046F21040C4F2E1
:10111000020044F21001C1F2000106F0D3FD46F2D4
:101120001040C4F2020048F22001C1F2000106F0B2
:1011300069FD0346002B09D046F21040C4F20200BC
:1011400048F22001C1F2000106F0BCFD80BD00BFE5
:1011500080B500AF4FF48050C4F200004FF00101A1
:1011600007F03CFA0346002B00F082804FF48050D9
:10117000C4F200004FF0010107F060FAFFF716FC1F
:1011800040F6D433C2F200031B881BB2C3F1000344
:10119000184608F03BFA02460B461046194636A39D
:1011A000D3E9002308F098FA02460B461046194688
:1011B00033A3D3E9002308F08FFA02460B4610460A
:1011C000194631A3D3E9002308F0B0FB02460B46D1
:1011D000104619462EA3D3E9002308F0A7FB0246C8
:1011E0000B461046194608F039FD024640F200034E
:1011F000C2F200031A6140F6C833C2F200031B8832
:101200001BB2184608F002FA02460B461046194671
:1012100019A3D3E9002308F05FFA02460B461046F3
:10122000194617A3D3E9002308F056FA02460B46E5
:101230001046194614A3D3E9002308F077FB0246B1
:101240000B461046194612A3D3E9002308F06EFBA3
:1012500002460B461046194608F000FD024640F2D1
:101260000003C2F200035A62FFF7A6F900F008F982
:1012700080BD00BFAFF3008052B81E85EB51C83F60
:10128000182D4454FB210940000000000022A64014
:101290009A9999999999993F80B500AF4FF4A050C8
:1012A000C4F200004FF0010107F098F90346002B4B
:1012B00007D04FF4A050C4F200004FF0010107F036
:1012C000BDF980BD80B500AF4FF080404FF0020106
:1012D00007F084F90346002B05D04FF080404FF013
:1012E000020107F0ABF980BD80B582B000AF786035
:1012F00040F20003C2F200035B68012B5DD17B6802
:10130000D3ED007AF0EEE77A17EE900A08F090F944
:1013100002460B461046194630A3D3E9002308F0D5
:101320006BFC0346002B48D040F25403C2F200038A
:101330004FF07C521A6040F25803C2F200034FF0A3
:101340007C521A607B6893ED007ADFED237AC7EE5A
:10135000277A17EE900A08F06BF902460B46104602
:10136000194619A3D3E9002308F0B6F902460B4643
:101370001046194616A3D3E9002308F0ADF902463A
:101380000B461046194608F069FC024640F200037D
:10139000C2F200031A6240F20003C2F20003D3ED6E
:1013A000087AF1EE677A40F20003C2F20003C3ED5F
:1013B0000D7A7B684FF000021A6007F10807BD46FE
:1013C00080BD00BFAFF30080182D4454FB210940BD
:1013D0005C8FC2F5285CE73F0000B4437B14AE4746
:1013E000E17A843FAFF3008080B582B000AF7860CF
:1013F00040F20003C2F200035B68012B37D17B6827
:10140000D3ED007AF0EEE77A17EE900A08F010F9C3
:1014100002460B461046194617A3D3E9002308F0ED
:10142000EBFB0346002B22D040F25403C2F2000330
:101430004FF07C521A6040F25803C2F200034FF0A2
:101440007C521A607B681A6840F20003C2F2000303
:101450001A6240F20003C2F200031A6A40F200036B
:10146000C2F200035A637B684FF000021A6007F172
:101470000807BD4680BD00BFFCA9F1D24D62503FB8
:10148000B0B500AF40F20003C2F200035B68012B6D
:1014900040F0278340F20003C2F200031B6A1846A3
:1014A00008F0C6F804460D4640F6D433C2F20003F5
:1014B0001B881BB2184608F0A9F802460B461046D6
:1014C00019460FF22463D3E9002308F005F9024618
:1014D0000B46104619460FF21863D3E9002308F0B3
:1014E000FBF802460B46104619460FF20C63D3E98F
:1014F000002308F01BFA02460B462046294607F057
:1015000037FF02460B461046194608F0A7FB024675
:1015100040F20003C2F200031A6240F20003C2F27A
:101520000003D3ED087AF0EEE77A17EE900A08F0A0
:101530007FF802460B46104619460FF2C453D3E912
:10154000002308F045FB0346002B5FD040F6B03384
:10155000C2F20003D3ED007AF0EEE77A17EE900ABC
:1015600008F066F802460B46104619460FF29853EB
:10157000D3E9002308F040FB0346002B46D040F699
:10158000B033C2F200031B68184608F051F8044655
:101590000D4640F20003C2F20003D3ED087AF5EEE7
:1015A000C07AF1EE10FAD4BF00230123DBB21A4651
:1015B00040F20003C2F20003D3ED087AF5EEC07AE0
:1015C000F1EE10FA54BF00230123DBB2D31A184600
:1015D00008F01CF802460B46104619460FF220533D
:1015E000D3E9002308F078F802460B462046294646
:1015F00007F0C0FE02460B461046194608F02EFBC7
:10160000024640F6B033C2F200031A6040F2000313
:10161000C2F20003D3ED0D7AF0EEE77A17EE900AEE
:1016200008F006F802460B46104619460FF2D04362
:10163000D3E9002308F0CCFA0346002B5FD040F634
:10164000B033C2F20003D3ED017AF0EEE77A17EE81
:10165000900A07F0EDFF02460B46104619460FF2BE
:10166000A843D3E9002308F0C7FA0346002B46D06D
:1016700040F6B033C2F200035B68184607F0D8FFAB
:1016800004460D4640F20003C2F20003D3ED0D7A8A
:10169000F5EEC07AF1EE10FAD4BF00230123DBB2DD
:1016A0001A4640F20003C2F20003D3ED0D7AF5EEC4
:1016B000C07AF1EE10FA54BF00230123DBB2D31A33
:1016C000184607F0A3FF02460B46104619460FF2D4
:1016D0003043D3E9002307F0FFFF02460B462046C4
:1016E000294607F045FE02460B461046194608F00B
:1016F000B5FA024640F6B033C2F200035A6040F237
:101700000003C2F20003D3ED087AF0EEE77A17EE99
:10171000900A07F08DFF02460B4610461946FCA3BF
:10172000D3E9002308F054FA0346002B06D040F614
:10173000B033C2F200034FF000021A6040F200031F
:10174000C2F20003D3ED0D7AF0EEE77A17EE900ABD
:1017500007F06EFF02460B4610461946ECA3D3E98C
:10176000002308F035FA0346002B06D040F6B033CC
:10177000C2F200034FF000025A6040F20003C2F2CE
:1017800000035B6B184607F053FF04460D4640F616
:10179000C833C2F200031B881BB2184607F036FF9D
:1017A00002460B4610461946CFA3D3E9002307F0A3
:1017B00093FF02460B4610461946CDA3D3E90023FA
:1017C00007F08AFF02460B4610461946CAA3D3E922
:1017D000002308F0ABF802460B462046294607F0E6
:1017E000C7FD02460B461046194608F037FA024676
:1017F00040F20003C2F200035A6340F20003C2F257
:101800000003D3ED0D7AF0EEE77A17EE900A07F0B9
:101810000FFF02460B4610461946B9A3D3E9002331
:1018200008F0E0F90346002B58D040F6B033C2F27E
:101830000003D3ED017AB0EEE77A40F25803C2F22A
:101840000003D3ED007AB4EEE77AF1EE10FA45D555
:1018500040F6B033C2F200035B68184607F0E8FEBA
:1018600004460D4640F20003C2F20003D3ED0D7AA8
:10187000F5EEC07AF1EE10FAD4BF00230123DBB2FB
:101880001A4640F20003C2F20003D3ED0D7AF5EEE2
:10189000C07AF1EE10FA54BF00230123DBB2D31A51
:1018A000184607F0B3FE02460B461046194698A3A9
:1018B000D3E9002307F010FF02460B4620462946D5
:1018C00007F058FD02460B461046194608F0C6F9C7
:1018D000024640F6B033C2F200035A6040F2000301
:1018E000C2F20003D3ED087AF0EEE77A17EE900A21
:1018F00007F09EFE02460B461046194680A3D3E928
:10190000002308F06FF90346002B58D040F6B0339F
:10191000C2F20003D3ED007AB0EEE77A40F254034E
:10192000C2F20003D3ED007AB4EEE77AF1EE10FADA
:1019300045D540F6B033C2F200031B68184607F0E5
:1019400077FE04460D4640F20003C2F20003D3EDD9
:10195000087AF5EEC07AF1EE10FAD4BF0023012325
:10196000DBB21A4640F20003C2F20003D3ED087A5C
:10197000F5EEC07AF1EE10FA54BF00230123DBB27A
:10198000D31A184607F042FE02460B461046194687
:1019900061A3D3E9002307F09FFE02460B462046D1
:1019A000294607F0E7FC02460B461046194608F0A8
:1019B00055F9024640F6B033C2F200031A6040F215
:1019C0000003C2F20003D3ED087AF0EEE77A17EED7
:1019D000900A07F02DFE02460B464FF001010C461F
:1019E0001046194646A3D3E9002308F0F1F8034650
:1019F000002B02D14FF000031C46E5B240F2000379
:101A0000C2F20003D3ED0D7AF0EEE77A17EE900AFA
:101A100007F00EFE02460B464FF001010C46104641
:101A2000194637A3D3E9002308F0D2F80346002B68
:101A300002D14FF000031C46E3B22B40DBB2002B77
:101A400006D040F20003C2F200034FF001021A6513
:101A500040F20003C2F20003D3ED087AF0EEE77A19
:101A600017EE900A07F0E4FD02460B464FF0010125
:101A70000C461046194622A3D3E9002308F0BCF80F
:101A80000346002B02D14FF000031C46E5B240F2A2
:101A90000003C2F20003D3ED0D7AF0EEE77A17EE01
:101AA000900A07F0C5FD02460B464FF001010C46B7
:101AB0001046194612A3D3E9002308F09DF8034607
:101AC000002B02D14FF000031C46E3B22B43DBB2E4
:101AD000002B06D040F20003C2F200034FF00002D8
:101AE0001A65B0BDAFF3008052B81E85EB51C83FF8
:101AF000182D4454FB210940000000000022A6409C
:101B00009A9999999999B93F9A9999999999C93FA7
:101B10007B14AE47E17A843F7B14AE47E17A84BF01
:101B200080B584B000AF4FF45273BB804FF0000318
:101B3000FB8040F6C413BB604FF00003BB814FF045
:101B40000003BB7307F104034FF48050C4F200009C
:101B5000194606F095FB4FF48050C4F200004FF098
:101B6000000106F007FC4FF48050C4F200004FF073
:101B7000010106F027FC4FF48050C4F200004FF042
:101B800001014FF0010206F005FD4FF036033B70F6
:101B90004FF004037B704FF00103BB704FF0010363
:101BA000FB703B46184605F049FC07F11007BD469F
:101BB00080BD00BF80B584B000AF4FF05403BB8040
:101BC0004FF00003FB804FF4FA63BB604FF000035B
:101BD000BB814FF00003BB7307F104034FF4A05027
:101BE000C4F20000194606F04BFB4FF4A050C4F2BB
:101BF00000004FF0000106F0BDFB4FF4A050C4F20E
:101C000000004FF0010106F0DDFB4FF4A050C4F2DC
:101C100000004FF001014FF0010206F0BBFC4FF055
:101C200037033B704FF004037B704FF00103BB7030
:101C30004FF00103FB703B46184605F0FFFB07F130
:101C40001007BD4680BD00BF80B483B000AF03461F
:101C5000FB714FF46143CEF2000397F907204FEA7E
:101C60005212F97901F01F014FF0010000FA01F161
:101C700043F8221007F10C07BD4680BC704700BF37
:101C800080B58AB000AF78604FF400304FF00101AA
:101C900006F0A2FA4FF008004FF0010106F01EFA1C
:101CA0004FF060033B624FF0020387F824304FF09F
:101CB000030387F825304FF0000387F826304FF0F4
:101CC000010387F8273007F120034FF44060C4F286
:101CD0000200194606F026F84FF44060C4F20200F4
:101CE0004FF005014FF0070206F0BEF84FF44060D8
:101CF000C4F202004FF006014FF0070206F0B4F8FC
:101D00007B683B614FF48053BB824FF48053FB826E
:101D10004FF000033B834FF00003BB834FF00C03F5
:101D20007B8307F110034FF48840C4F2000019468A
:101D300006F05EFE4FF48840C4F2000040F22661D7
:101D40004FF0010206F070FF4FF48840C4F200002B
:101D500040F225514FF0010206F066FF4FF02603D6
:101D60003B734FF000037B734FF00003BB734FF0E6
:101D70000103FB7307F10C03184605F05FFB4FF4FA
:101D80008840C4F200004FF0010106F007FF07F1A0
:101D90002807BD4680BD00BF80B58AB000AF78601F
:101DA0004FF020004FF0010106F016FA4FF004004A
:101DB0004FF0010106F092F94FF0C0033B624FF083
:101DC000020387F824304FF0030387F825304FF0E3
:101DD000000387F826304FF0010387F8273007F11A
:101DE00020034FF40060C4F20200194605F09AFF88
:101DF0004FF40060C4F202004FF006014FF00802F9
:101E000006F032F84FF40060C4F202004FF0070110
:101E10004FF0080206F028F87B683B614FF48053CE
:101E2000BB824FF48053FB824FF000033B834FF0A3
:101E30000003BB834FF00C037B8307F110034FF4C7
:101E4000A050C4F20100194606F0D2FD4FF4A05094
:101E5000C4F2010040F226614FF0010206F0E4FEF8
:101E60004FF4A050C4F2010040F225514FF001029E
:101E700006F0DAFE4FF047033B734FF000037B732D
:101E80004FF00003BB734FF00103FB7307F10C032A
:101E9000184605F0D3FA4FF4A050C4F201004FF0F9
:101EA000010106F07BFE07F12807BD4680BD00BF9B
:101EB00080B485B000AF78600B46FB704FF44053A0
:101EC000C4F202034FF001029A604FF00003FB736B
:101ED0000CE04FF44053C4F20203FA7B79688A188D
:101EE00012781A60FB7B03F10103FB73FA7BFB782A
:101EF0009A42EED34FF44053C4F202031B681846D3
:101F000007F11407BD4680BC704700BF80B400AF26
:101F10004FF4C043C4F202034FF40062DA60BD46DE
:101F200080BC704780B582B000AF7860396046F2FF
:101F3000B843C4F2020346F2B842C4F20202126885
:101F400022F001021A6046F2B843C4F2020346F2DC
:101F5000B842C4F20202126842F000621A6046F20D
:101F6000B843C4F2020341F20402C4F201029A60CF
:101F700046F2B843C4F202037A68DA6046F2B84324
:101F8000C4F2020346F2B842C4F20202126822F01E
:101F9000C0021A6046F2B843C4F2020346F2B842E5
:101FA000C4F20202126842F040021A6046F2B843DC
:101FB000C4F202033A685A6046F2B843C4F202031C
:101FC00046F2B842C4F20202126822F400721A60A9
:101FD00046F2B843C4F2020346F2B842C4F2020227
:101FE000126842F480621A6046F2B843C4F20203F7
:101FF00046F2B842C4F20202126842F440321A6059
:1020000046F2B843C4F2020346F2B842C4F20202F6
:10201000126842F010021A604FF48053C4F20103B8
:102020004FF48052C4F20102128892B222F04002B0
:1020300092B21A804FF4C843C4F202034FF0006218
:102040009A6046F2B843C4F2020346F2B842C4F2C0
:102050000202126842F001021A604FF04600FFF7D8
:10206000F3FD07F10807BD4680BD00BF80B582B013
:1020700000AF7860396046F24043C4F2020346F292
:102080004042C4F20202126822F001021A6046F2D3
:102090004043C4F2020346F24042C4F20202126814
:1020A00042F000621A6046F24043C4F2020341F279
:1020B0000402C4F201029A6046F24043C4F20203F1
:1020C0007A68DA6046F24043C4F2020346F24042C4
:1020D000C4F20202126822F0C0021A6046F24043C3
:1020E000C4F202033A685A6046F24043C4F2020363
:1020F00046F24042C4F20202126822F400721A60F0
:1021000046F24043C4F2020346F24042C4F20202E5
:10211000126842F480621A6046F24043C4F202033D
:1021200046F24042C4F20202126842F440321A609F
:1021300046F24043C4F2020346F24042C4F20202B5
:10214000126842F010021A604FF4C843C4F202034E
:102150004FF400629A6046F24043C4F2020346F232
:102160004042C4F20202126842F001021A604FF0CB
:102170003A00FFF769FD07F10807BD4680BD00BFC3
:1021800080B582B000AF4FF000037B6040F26C037B
:10219000C2F200034FF000021A724FF4C043C4F2BF
:1021A00002031B6803F00063002B00F06F8146F20E
:1021B0005803C4F2020346F25802C4F20202126843
:1021C00022F001021A604FF4C043C4F202034FF43C
:1021D000C042C4F20202926842F040629A6040F249
:1021E0006C03C2F200031A6A40F26C03C2F20003ED
:1021F0005B689A420EDD40F26C03C2F200031A6A79
:1022000040F26C03C2F200035B68D31A03F1FF33A0
:102210007B600FE040F26C03C2F200031B6A03F123
:10222000C70240F26C03C2F200035B68D31A03F1E9
:10223000FF337B607B68002B40F3208140F26C030E
:10224000C2F200031A6A40F26C03C2F200035B6838
:102250009A4274DD40F26C03C2F200035B68C72B44
:1022600006D140F26C03C2F200034FF0FF325A6015
:1022700040F26C03C2F200035B6803F1010240F21A
:102280006C03C2F200031A6040F26C03C2F2000356
:102290001B6A03F1FF3240F26C03C2F200035A6082
:1022A00040F26C03C2F200035A6840F26C03C2F2BF
:1022B00000031B68D31A03F1010240F26C03C2F25F
:1022C00000039A6140F26C03C2F200031B681A46D5
:1022D00040F66043C2F20003D21840F26C03C2F22F
:1022E0000003DA6140F26C03C2F200034FF0010216
:1022F0001A7240F26C03C2F20003DA6940F26C0316
:10230000C2F200039B6910461946FFF70BFE40F22C
:102310006C03C2F200034FF003025A7240F26C03E6
:10232000C2F200035A6940F26C03C2F200039B69D7
:10233000D21840F26C03C2F200035A61AEE040F2E0
:102340006C03C2F200035B68C72B35D140F26C030B
:10235000C2F200034FF000021A6040F26C03C2F2B6
:1023600000031B6A03F1FF3240F26C03C2F2000368
:102370005A6040F26C03C2F200035A6840F26C03E8
:10238000C2F200031B68D31A03F1010240F26C038E
:10239000C2F200039A6140F26C03C2F200031B68B0
:1023A0001A4640F66043C2F20003D21840F26C03B2
:1023B000C2F20003DA6134E040F26C03C2F20003BF
:1023C0005B6803F1010240F26C03C2F200031A6081
:1023D00040F26C03C2F200034FF0C7025A6040F2B1
:1023E0006C03C2F200035A6840F26C03C2F20003AD
:1023F0001B68D31A03F1010240F26C03C2F200031E
:102400009A6140F26C03C2F200031B681A4640F660
:102410006043C2F20003D21840F26C03C2F2000320
:10242000DA6140F26C03C2F200034FF001021A724B
:1024300040F26C03C2F200035A6940F26C03C2F22C
:1024400000039B69D21840F26C03C2F200035A6188
:1024500040F26C03C2F20003DA6940F26C03C2F28C
:1024600000039B6910461946FFF75CFD40F26C03C0
:10247000C2F200034FF004025A720FE040F26C0304
:10248000C2F200034FF000021A7207E040F26C0340
:10249000C2F200034FF000021A7200BF07F10807F2
:1024A000BD4680BD80B582B000AF46F24043C4F265
:1024B000020346F24042C4F20202126822F0010214
:1024C0001A604FF4C843C4F202034FF4C842C4F286
:1024D0000202926842F400629A604FF48053C4F2A0
:1024E00001034FF48052C4F20102928992B242F089
:1024F000200292B29A8140F29000C2F200004FF0A6
:102500001A01FFF7D5FC0346FB8040F29003C2F2AC
:1025100000035B8BFA889A424DD140F29003C2F2DD
:102520000003D3F80E2013461A4640F6CC23C2F21D
:1025300000031A6040F29003C2F20003D3F81220A5
:1025400013461A4640F6CC23C2F200035A6040F20A
:102550009003C2F20003D3F8162013461A4640F641
:10256000CC23C2F200039A6040F29003C2F200034F
:10257000D3F8062013461A4640F6D823C2F20003C9
:102580001A6040F29003C2F20003D3F8022013460F
:102590001A4640F6D823C2F200035A6040F2900374
:1025A000C2F20003D3F80A2013461A4640F6D82395
:1025B000C2F200039A6007F10807BD4680BD00BF64
:1025C00080B582B000AF4FF48053C4F201031B8882
:1025D0009BB2FB714FF48053C4F201034FF0000231
:1025E0001A80FB7903F02003002B04D1FB7903F060
:1025F0000803002B7ED04FF48053C4F201039B8864
:102600009BB2DAB240F65843C2F200035A7040F669
:102610005843C2F200035B78184603F04FFF4FF4B3
:102620008053C4F201031B889BB2FB71FB7903F05A
:102630000803002B1AD04FF48053C4F201039B8887
:102640009BB2DAB240F65843C2F200035A7040F629
:102650005843C2F200035B78184603F02FFF4FF493
:102660008053C4F201031B889BB2FB7140F65843B0
:10267000C2F200031B78AA2B32D140F65843C2F2B3
:1026800000035B78012B2BD140F65843C2F20003C4
:102690005A7840F29003C2F200035A7017484FF084
:1026A0001B01FFF7E3FC4FF48053C4F201034FF426
:1026B0008052C4F20102928992B222F0200292B2B8
:1026C0009A814FF48053C4F201034FF48052C4F254
:1026D0000102928A92B242F0400292B29A8209E0DA
:1026E00040F65843C2F200035A7840F65843C2F20B
:1026F00000031A7007F10807BD4680BD9100002055
:1027000080B584B000AF78600B46FB7078684FF0FE
:1027100081014FF040024FF0020301F0D5FD7868CF
:102720004FF001014FF040024FF0020301F0CCFDE9
:1027300078684FF082014FF008024FF0030301F078
:10274000C3FD40F29413C2F20003FB60FB6803F187
:1027500004034FF002021A70FB6803F105034FF007
:1027600000021A7040F26413C2F200031B6898471B
:1027700078684FF0010140F66C52C2F200024FF04F
:10278000400301F03FFE4FF00003184607F1100729
:10279000BD4680BD80B582B000AF78600B46FB704F
:1027A00078684FF0810101F0E9FD78684FF0010190
:1027B00001F0E4FD78684FF0820101F0DFFD40F2A6
:1027C0006413C2F200035B6898474FF00003184699
:1027D00007F10807BD4680BD80B582B000AF7860C4
:1027E00039603B681B7803F06003002B58D0202B26
:1027F0004FD13B68DB88002B3BD03B681B78DBB2BA
:102800005BB2002B1ADA40F26413C2F200039B6839
:102810003A68527811463A68D288084640F6AC5178
:10282000C2F2000198473B68DB88786840F6AC51FB
:10283000C2F200011A4603F073F827E03B685B78A8
:102840001A4640F2F003C2F200031A603B68DB88CC
:102850001A4640F6B023C2F200031A603B68DB88D8
:10286000786840F6AC51C2F200011A4603F094F8C1
:102870000CE040F26413C2F200039B683A6852789D
:1028800010464FF000014FF0000298474FF0000350
:1028900035E07868396803F091FD4FF002032EE0CF
:1028A0003B685B780A2B0AD00B2B12D0062B24D165
:1028B0007868396803F082FD4FF002031FE0786802
:1028C00040F69C21C2F200014FF0010203F028F80B
:1028D00013E03B685B88DBB2002B09D13B685B8867
:1028E000DBB21A4640F69C23C2F200031A6003E0F2
:1028F0007868396803F062FD00BF4FF000031846A6
:1029000007F10807BD4680BD90B583B000AF786081
:1029100040F2F003C2F200031B68FF2B1CD040F210
:102920006413C2F200039C6840F2F003C2F2000399
:102930001A6840F6B023C2F200031B68104640F646
:10294000AC51C2F200011A46A04740F2F003C2F2B5
:1029500000034FF0FF021A604FF00003184607F122
:102960000C07BD4690BD00BF80B584B000AF786055
:102970000B46FB7040F6AC23C2F200031B78012B20
:1029800073D140F6A823C2F200031B68002B07D1C5
:1029900040F6AC23C2F200034FF000021A7064E06C
:1029A00040F6A823C2F200031B68402B21D940F651
:1029B000A423C2F200031B68FB814FF04003BB81DC
:1029C00040F6A423C2F200031B6803F1400240F664
:1029D000A423C2F200031A6040F6A823C2F2000347
:1029E0001B68A3F1400240F6A823C2F200031A605C
:1029F0002CE040F6A423C2F200031B68FB8140F6E2
:102A0000A823C2F200031B68BB8140F6A423C2F2D4
:102A100000031A6840F6A823C2F200031B68D2180C
:102A200040F6A423C2F200031A6040F6A823C2F2C3
:102A300000034FF000021A60BB89402B06D140F61C
:102A4000AC23C2F200034FF002021A70FA8940F67A
:102A5000B453C2F20003D218BB8978684FF08101E9
:102A600001F018FD4FF0000318E040F6AC23C2F26D
:102A700000031B78022B0FD178684FF081014FF0D3
:102A800000024FF0000301F005FD40F6AC23C2F256
:102A900000034FF000021A704FF00003184607F1D0
:102AA0001007BD4680BD00BF80B584B000AF786020
:102AB0000B46FB70FA78796813464FEA83039B183C
:102AC0004FEAC303CB1803F563731B68FB8140F225
:102AD0006413C2F200031B69FA8940F66C50C2F21B
:102AE00000001146984778684FF0010140F66C529B
:102AF000C2F200024FF0400301F084FC4FF00003EB
:102B0000184607F11007BD4680BD00BF80B582B0F2
:102B100000AF786040F6B423C2F200031B68052BB7
:102B200014BF00220122D2B203F1010140F6B42306
:102B3000C2F200031960002A09D040F6B423C2F2A1
:102B400000034FF000021A60786800F007F84FF0B9
:102B50000003184607F10807BD4680BD80B584B064
:102B600000AF786040F6AC23C2F200031B78002B64
:102B700040F0BD8040F6A423C2F200031B68B3F509
:102B8000006F06D140F6A423C2F200034FF000020A
:102B90001A6040F6A423C2F200031A6840F6A0238C
:102BA000C2F200031B689A4207D140F6AC23C2F27E
:102BB00000034FF000021A7099E040F6A423C2F21D
:102BC00000031A6840F6A023C2F200031B689A4271
:102BD0000CD940F6A423C2F200031B68C3F50062BF
:102BE00040F6A823C2F200031A600FE040F6A023CB
:102BF000C2F200031A6840F6A423C2F200031B6865
:102C0000D21A40F6A823C2F200031A6040F6A823A5
:102C1000C2F200031B68402B28D940F6A423C2F25D
:102C200000031B68FB814FF04003BB8140F6A423E7
:102C3000C2F200031B6803F1400240F6A423C2F273
:102C400000031A6040F6A823C2F200031B68A3F138
:102C5000400240F6A823C2F200031A6040F6AC23FB
:102C6000C2F200034FF001021A7034E040F6A423D0
:102C7000C2F200031B68FB8140F6A823C2F20003E6
:102C80001B68BB8140F6A423C2F200031A6840F619
:102C9000A823C2F200031B68D21840F6A423C2F294
:102CA00000031A6040F6A823C2F200034FF00002AE
:102CB0001A60BB89402B07D140F6AC23C2F2000357
:102CC0004FF002021A7006E040F6AC23C2F2000395
:102CD0004FF001021A70FA8940F6B453C2F20003B1
:102CE000D218BB8978684FF0810101F0D3FB07F15E
:102CF0001007BD4680BD00BF80B483B000AF03465F
:102D00003960FB713B684FF043021A8040F2AC031C
:102D1000C2F20003184607F10C07BD4680BC70479D
:102D200080B485B000AF78604FF00003FB607B6833
:102D3000DB684FF0FF325A607B68DB686FF08042DF
:102D40005A61FB6843F00043FB60FB6843F4006397
:102D5000FB607B68DB68FA689A6107F11407BD467F
:102D600080BC704780B586B000AF78604FF000033C
:102D7000FB744FF000037B614FF00003FB604FF0EA
:102D8000030003F0CBFF7B68DB681B69FB607B699A
:102D900003F101037B617A694FF45463C0F20303CA
:102DA0009A4202D94FF000032AE0FB6803F0004387
:102DB000002BE4D04FF000037B61FB6843F001037C
:102DC000FB607B68DB68FA681A617B68DB681B69FB
:102DD000FB607B6903F101037B617A694FF4546303
:102DE000C0F203039A4205D8FB6803F00103002BED
:102DF000EBD100E000BF4FF0030003F08FFFFB7C3E
:102E0000184607F11807BD4680BD00BF80B489B0E1
:102E100000AFF860B960FA71BB804FF00003FB7639
:102E2000FB68DB78002B2DD14FF000037B614FF066
:102E30000003FB61BB8803F1030303F10302002BD2
:102E4000B8BF13464FEAA3037B61FB79FA6803F12D
:102E500032034FEA8303D3189B683B614FF00003B2
:102E6000FB610BE0BB681A683B691A60BB6803F141
:102E70000403BB60FB6903F10103FB61FA697B6931
:102E80009A42EFD3FB7E184607F12407BD4680BC6B
:102E9000704700BF80B489B000AFF860B9601346D6
:102EA000FB804FF00003FB61FB8803F1030303F198
:102EB0000302002BB8BF13464FEAA303BB61FB68B4
:102EC000D3F8D0307B614FF00003FB610BE07B69EE
:102ED0001A68BB681A60BB6803F10403BB60FB6936
:102EE00003F10103FB61FA69BB699A42EFD3BB6846
:102EF000184607F12407BD4680BC704780B487B0F0
:102F000000AF78600B46FB704FF000033B614FF061
:102F10000003FB737B684FF00002DA707B684FF0B0
:102F200001029A707B684FF040029A80FB78012B77
:102F300017D14FF0A0433B617B684FF00102DA727A
:102F40007B684FF008021A707B684FF004025A70D9
:102F50007B684FF4A072DA807B684FF002021A722D
:102F600017E0FB78002B14D14FF00003C4F20403E8
:102F70003B617B684FF00002DA727B684FF00C0215
:102F80001A707B684FF006025A707B684FF4A0629B
:102F9000DA803A697B68DA603B6903F500631A46B8
:102FA0007B681A614FF000037B6123E07B694FEA85
:102FB00043123B69D31803F510631A4679687B699D
:102FC00003F104034FEA8303CB189A607B694FEA4D
:102FD00043123B69D31803F530631A4679687B695D
:102FE00003F114034FEA8303CB185A607B6903F1A2
:102FF00001037B617B685B781A467B699A42D5D86E
:103000003B6903F580631A467B685A613B6903F5A7
:1030100088631A467B68C3F8CC204FF000037B61BD
:1030200013E07B694FEA43123B69D31803F5A063B1
:103030001A4679687B6903F122034FEA8303CB18B0
:103040009A607B6903F101037B617B681B781A46F8
:103050007B699A42E5D84FF000037B6113E07B69FE
:103060004FEA03323B69D31803F580531A46796857
:103070007B6903F132034FEA8303CB189A607B69C3
:1030800003F101037B617B681B781A467B699A42D6
:10309000E5D83B6903F560631A467B68C3F80C21E9
:1030A000FB7B184607F11C07BD4680BC704700BF7C
:1030B00080B586B000AF78604FF00003FB754FF02D
:1030C00000033B614FF00003FB604FF00003BB6067
:1030D0007B681B7A012B44D17B68DB689B6BFB60B0
:1030E000FB686FF31043FB607B685B7A002B03D0B7
:1030F000FB6843F48013FB607B68DB68FA689A63C3
:103100004FF000033B617B68DB68DB683B613B6938
:103110006FF386133B613B696FF396533B613B69E9
:103120006FF351433B613B696FF3D3433B617B6872
:10313000DB683A69DA607868FFF714FE7B68DB7851
:10314000012B3CD1BB684FF0050262F34403BB6026
:10315000BB6843F02003BB607B68DB68BA689A6099
:103160002DE07B68DB68DB683B613B6943F0400333
:103170003B617B68DB683A69DA607868FFF7F2FDEB
:103180004FF00003FB60FB6843F48033FB60FB6897
:1031900043F48023FB60FB6843F40023FB607B68FF
:1031A0005B7A002B03D0FB6843F48013FB607B68E1
:1031B000DB68FA689A634FF0140003F0DBFD7B686C
:1031C000DB78012B11D17B68DB689B68BB60BB6837
:1031D0004FF0050262F34403BB60BB6843F0200379
:1031E000BB607B68DB68BA689A60FB7D184607F1B4
:1031F0001807BD4680BD00BF80B485B000AF7860C1
:103200004FF00003FB734FF00003BB60BB6843F05B
:103210000103BB607B68DB687A68D2689168BA6832
:103220000A439A60FB7B184607F11407BD4680BC31
:10323000704700BF80B485B000AF78604FF00003E6
:10324000FB734FF00003BB60BB6843F00103BB603E
:103250007B68DB687A68D2689168BA686FEA0202B4
:103260000A409A60FB7B184607F11407BD4680BCF4
:10327000704700BF80B586B000AF786039604FF00E
:103280000003FB744FF000037B614FF00003FB6011
:10329000FB6843F02003FB603B68DBB203F01F03D5
:1032A000DAB2FB6862F38A13FB607B68DB68FA685A
:1032B0001A617B68DB681B69FB607B6903F10103B2
:1032C0007B617A694FF45463C0F203039A4205D8D4
:1032D000FB6803F02003002BEBD100E000BF4FF0B0
:1032E000030003F01BFDFB7C184607F11807BD46E1
:1032F00080BD00BF80B586B000AF78604FF000039E
:10330000FB744FF000037B614FF00003FB60FB6830
:1033100043F01003FB607B68DB68FA681A617B6826
:10332000DB681B69FB607B6903F101037B617A69E0
:103330004FF45463C0F203039A4205D8FB6803F0CC
:103340001003002BEBD100E000BF4FF0030003F0AF
:10335000E5FCFB7C184607F11807BD4680BD00BFA1
:1033600080B584B000AF78600B46FB704FF000036F
:10337000FB737B68DB68DB68BB60BB686FF35D7306
:10338000BB60BB686FF39E73BB60FB78012B04D1FD
:10339000BB6843F00053BB6006E0FB78002B03D111
:1033A000BB6843F08043BB607B68DB68BA68DA6067
:1033B0004FF0320003F0DEFCFB7B184607F11007EC
:1033C000BD4680BD80B483B000AF78607B68DB68A9
:1033D0005B6903F00103184607F10C07BD4680BC8A
:1033E000704700BF80B582B000AF78607868FFF7A3
:1033F000E9FF0346012B0CBF00230123DBB2184673
:1034000007F10807BD4680BD80B485B000AF786085
:103410004FF00003FB607B68DB685B69FB607B68E7
:10342000DB689B69FA681340FB60FB68184607F18C
:103430001407BD4680BC704780B485B000AF78608B
:103440000B46FB707B681B691B68FB60FB7803F015
:103450000303DAB2FB6862F30103FB607B681B695C
:10346000FA681A6007F11407BD4680BC704700BFB8
:1034700080B58CB000AF78604FF0000387F82B3038
:103480004FF000037B624FF000033B624FF00003FC
:10349000FB614FF00003BB614FF000037B617B6871
:1034A000D3F80C314FF000021A607B681B691B686F
:1034B0003B623B6A6FF3CC233B627B681B693A6AD1
:1034C0001A607B68DB7A012B47D178684FF00301E3
:1034D000FFF7B2FF7B68DB684FF080025A62FB693E
:1034E0004FF0200262F31F43FB61FB694FF0800243
:1034F00062F30F03FB617B68DB68FA699A62BA8B3F
:10350000FB8BD3189BB23B83BB694FF0800262F305
:103510001F43BB617B68DB68BA69C3F804213A8B3F
:103520007B8BD3189BB23B83BB694FF0200262F3C5
:103530001F43BB617B68DB68BA69C3F808213A8B1B
:103540007B8BD3189BB23B83BB696FF31F43BB617B
:103550007B68DB68BA69C3F80C2178684FF010010A
:10356000FFF788FE7868FFF7C5FE7B681B694FF0A0
:1035700000021A617B681B694FF000025A617B6888
:103580001B694FF0FF329A617B681B694FF00002A4
:10359000DA614FF00003FB6243E07A68FB6A03F1F3
:1035A00004034FEA8303D3189B681B687B6297F878
:1035B000273023F07F03DBB2002B0BD04FF000034A
:1035C0007B627B6A43F080437B627B6A43F00063EB
:1035D0007B6202E04FF000037B627A68FB6A03F1D2
:1035E00004034FEA8303D3189B687A6A1A607A68E7
:1035F000FB6A03F104034FEA8303D3189B684FF07F
:1036000000021A617A68FB6A03F104034FEA83033C
:10361000D3189B684FF0FF029A60FB6A03F1010325
:10362000FB627B685B781A46FB6A9A42B5D84FF01A
:103630000003FB6242E07A68FB6A03F114034FEA7D
:103640008303D3185B681B68FB60FB7B23F07F035D
:10365000DBB2002B0BD04FF00003FB60FB6843F0A4
:103660008043FB60FB6843F00063FB6002E04FF0C7
:103670000003FB607A68FB6A03F114034FEA8303DB
:10368000D3185B68FA681A607A68FB6A03F114035E
:103690004FEA8303D3185B684FF000021A617A681F
:1036A000FB6A03F114034FEA8303D3185B684FF0FE
:1036B000FF029A60FB6A03F10103FB627B685B789F
:1036C0001A46FB6A9A42B6D84FF000037B617B69C9
:1036D00043F480737B617B681B697A6812691169A6
:1036E0007A696FEA020211407A690A431A617B68BB
:1036F000DB78012B1ED14FF000033B613B6943F0A7
:1037000001033B613B6943F002033B613B694FF0BE
:10371000400262F38A033B613B6943F480333B61BF
:103720003B694FF0400262F359433B617B681B6980
:103730003A691A63786800F007F897F82B30184652
:1037400007F13007BD4680BD80B584B000AF78601A
:103750004FF00003FB734FF00003BB607B68DB6836
:103760004FF000029A617B68DB686FF080425A611B
:103770007868FFF7D5FA7B68DB78002B03D1BB684C
:1037800043F01003BB60BB6843F40063BB60BB68DD
:1037900043F48053BB60BB6843F40053BB60BB6819
:1037A00043F48023BB60BB6843F40023BB60BB6869
:1037B00043F00803BB60BB6843F48013BB60BB6885
:1037C00043F40013BB60BB6843F08043BB60BB683D
:1037D00043F00403BB607B68DB687A68D268916958
:1037E000BA686FEA02021140BA680A439A61FB7B29
:1037F000184607F11007BD4680BD00BF80B485B0F4
:1038000000AF78604FF00003FB737B681B699B6817
:10381000BB60BB68C3F34103DBB2032B16D801A224
:1038200052F823F0353800083D38000845380008C4
:103830003D3800084FF00303FB730BE04FF0020329
:10384000FB7307E04FF00103FB7303E04FF002034B
:10385000FB7300BFFB7B184607F11407BD4680BC15
:10386000704700BF80B487B000AF78604FF00003AE
:10387000FB754FF00003BB607B681B699B683B6175
:103880007B689B691B68FB603B69C3F34103DBB248
:10389000032B17D801A252F823F000BFAD3800085F
:1038A000AD380008B7380008AD380008FB686FF382
:1038B0000A03FB600BE0FB684FF0030262F30A03AC
:1038C000FB6004E0FB686FF30A03FB6000BF7B68EA
:1038D0009B69FA681A60BB6843F48073BB607B68BD
:1038E0001B697A6812695168BA686FEA020211406E
:1038F000BA680A435A60FB7D184607F11C07BD46AB
:1039000080BC704780B487B000AF786039604FF0FA
:103910000003FB744FF00003FB604FF00003BB603B
:103920003B685B78012B12D13B681B787A6803F106
:1039300004034FEA8303D3189B687B613B681B78C1
:103940004FF0010202FA03F39BB23B8114E03B68A3
:103950001B787A6803F114034FEA8303D3185B687A
:103960007B613B681B784FF0010202FA03F39AB2C5
:10397000BB6862F31F43BB607B691B68FB607B7B9A
:1039800023F07F03DBB2002B29D13B689B689BB2FD
:103990004FEA43534FEA53539AB2FB6862F30A0368
:1039A000FB603B68DB7803F00303DAB2FB6862F389
:1039B0009343FB603B68DB88DBB203F00F03DAB2B2
:1039C000FB6862F39953FB60FB6843F08053FB6034
:1039D000FB6843F40043FB60FA687B691A607B680C
:1039E0001B697A681269D169BA680A43DA61FB7C9B
:1039F000184607F11C07BD4680BC704780B487B0ED
:103A000000AF786039604FF00003FB744FF00003A3
:103A1000FB604FF00003BB603B685B78012B12D169
:103A20003B681B787A6803F104034FEA8303D318D9
:103A30009B687B613B681B784FF0010202FA03F33D
:103A40009BB23B8114E03B681B787A6803F1140356
:103A50004FEA8303D3185B687B613B681B784FF0A8
:103A6000010202FA03F39AB2BB6862F31F43BB6020
:103A7000FB686FF3CF33FB60FA687B691A607B6881
:103A80001B697A681269D169BA686FEA02020A4052
:103A9000DA61FB7C184607F11C07BD4680BC704705
:103AA00080B588B000AF786039604FF00003FB77D5
:103AB0004FF00003BB614FF000037B614FF0000348
:103AC0003B613B685B78012B40F0BD803B681B7815
:103AD0007A6803F104034FEA8303D3189B681B68D9
:103AE0007B613B681B787A6803F104034FEA830328
:103AF000D3189B681B693B613B685B69002B0AD14B
:103B00003B696FF312033B613B694FF0010262F3C3
:103B1000DC433B6128E03B685B6923F07F4222F491
:103B200078023B6962F312033B613B685A693B6868
:103B30009B68D31803F1FF323B689B68B2FBF3F339
:103B40009BB24FEA83534FEA93539AB23B6962F3B5
:103B5000DC433B613B68DB78012B05D13B694FF0CF
:103B6000010262F35E733B613B681B787A6803F184
:103B700004034FEA8303D3189B683A691A617B6890
:103B8000DB78012B0CD13B681B787A6803F10403C6
:103B90004FEA8303D3189B683A6812695A6116E0AA
:103BA0003B68DB78012B12D03B685B69002B0ED0A1
:103BB0003B681B784FF0010202FA03F3BB617B689C
:103BC0001B697A681269516BBA690A435A633B6888
:103BD000DB78012B14D17B681B699B68FB60FB6859
:103BE000C3F30D239BB203F00103002B04D17B69C7
:103BF00043F000537B6103E07B6943F080537B61BA
:103C00007B6943F080637B617B6943F000437B61A8
:103C10003B681B787A6803F104034FEA8303D318E7
:103C20009B687A691A603B68DB78012B40F0A080C2
:103C30003B68D9683B681A783B685B699BB27868D7
:103C4000FFF7E4F894E03B681B787A6803F114030B
:103C50004FEA8303D3185B681B687B613B681B7862
:103C60007A6803F114034FEA8303D3185B681B6976
:103C70003B613B685B69002B10D13B689B6823F07C
:103C80007F4222F478023B6962F312033B613B6995
:103C90004FF0010262F3DC433B612AE03B685A6962
:103CA0003B689B68D31803F1FF323B689B68B2FB0B
:103CB000F3F39BB24FEA83534FEA93539AB23B69B3
:103CC00062F3DC433B613B69C3F3C9439BB23A688F
:103CD000926802FB03F323F07F4222F478023B69EF
:103CE00062F312033B613B69C3F312031A463B685C
:103CF0005A613B681B787A6803F114034FEA830327
:103D0000D3185B683A691A617B68DB78012B0BD1A9
:103D10003B681B787A6803F114034FEA8303D318D6
:103D20005B683A6812695A613B68DB78012B0CD1F9
:103D30003B685B79002B04D07B6943F000537B61C7
:103D400003E07B6943F080537B617B6943F08063D0
:103D50007B617B6943F000437B613B681B787A6839
:103D600003F114034FEA8303D3185B687A691A607E
:103D7000FB7F184607F12007BD4680BD80B489B09F
:103D800000AF786039604FF00003FB774FF000031D
:103D9000BB614FF000033B614FF00003FB603B68E9
:103DA0005B78012B70D17B689B697B617B691B68A9
:103DB0003B617B691B69FB603B685B69002B08D139
:103DC000FB686FF30603FB60FB6843F40023FB60B2
:103DD00022E03B685A693B689B689A420ED93B686F
:103DE0009A683B685A613B689B68DBB203F07F03CB
:103DF000DAB2FB6862F30603FB6009E03B685B69CB
:103E0000DBB203F07F03DAB2FB6862F30603FB6008
:103E1000FB6843F40023FB60FA687B691A617B68E6
:103E2000DB78012B0BD13B681B787A6803F1040324
:103E30004FEA8303D3189B683A6812695A613B6959
:103E400043F080633B613B6943F000433B613A6967
:103E50007B691A607B68DB78002B7ED13B685B69ED
:103E6000002B7AD03B681B784FF0010202FA03F373
:103E7000BA691343BB617B681B697A681269516B2D
:103E8000BA690A435A6368E03B681B787A6803F1B1
:103E900014034FEA8303D3185B681B683B613B68DC
:103EA0001B787A6803F114034FEA8303D3185B6825
:103EB0001B69FB603B685B69002B0ED13B689B680C
:103EC000DBB203F07F03DAB2FB6862F30603FB6048
:103ED000FB6843F40023FB6011E03B689A683B6891
:103EE0005A613B689B68DBB203F07F03DAB2FB6880
:103EF00062F30603FB60FB6843F40023FB603B684E
:103F00001B787A6803F114034FEA8303D3185B68C4
:103F1000FA681A617B68DB78012B0BD13B681B7850
:103F20007A6803F114034FEA8303D3185B683A6895
:103F300012695A613B6943F080633B613B6943F01E
:103F400000433B613B681B787A6803F114034FEA36
:103F50008303D3185B683A691A60FB7F184607F140
:103F60002407BD4680BC704780B487B000AF78603E
:103F700039604FF00003FB754FF00003FB603B68B6
:103F80005B78012B1ED13B681B787A6803F1040330
:103F90004FEA8303D3189B683B613B691B68FB6056
:103FA000FB7B23F07F03DBB2002B03D0FB6843F0E5
:103FB0008043FB60FB6843F40013FB60FA683B69D5
:103FC0001A6013E03B681B787A6803F114034FEA28
:103FD0008303D3185B683B613B691B68FB60FB682C
:103FE00043F40013FB60FA683B691A60FB7D1846D6
:103FF00007F11C07BD4680BC704700BF80B487B086
:1040000000AF786039604FF00003FB744FF000039D
:10401000FB603B685B78012B0AD13B681B787A68B0
:1040200003F104034FEA8303D3189B687B6109E023
:104030003B681B787A6803F114034FEA8303D318B3
:104040005B687B617B691B68FB60FB686FF35553A2
:10405000FB603B68DB78032B03D03B68DB78022BEB
:1040600003D1FB6843F08053FB60FA687B691A60F8
:10407000FB7C184607F11C07BD4680BC704700BF9B
:1040800080B485B000AF78607B681B699B69FB607A
:104090007B681B69DB69FA681340FB60FB684FEAC9
:1040A0001343184607F11407BD4680BC704700BF94
:1040B00080B485B000AF78600B46FB70FB787A68FF
:1040C00003F114034FEA8303D3185B689B68FB601A
:1040D0007B681B695B69FA681340FB60FB681846E4
:1040E00007F11407BD4680BC704700BF80B485B09F
:1040F00000AF78607B681B699B69FB607B681B690C
:10410000DB69FA681340FB60FB684FEA03434FEA40
:104110001343184607F11407BD4680BC704700BF23
:1041200080B485B000AF78604FF00003FB60FB689F
:1041300043F0C043FB60FB6843F40023FB60FB6873
:104140004FF0180262F30603FB607B685B6DFA6850
:104150001A617B68DB78012B17D14FF00003BB603D
:104160007B685B6D7A6802F2CC525A617B685B6D4A
:104170001B68BB60BB6843F00043BB604FF080230B
:10418000BB607B685B6DBA681A6007F11407BD46B7
:1041900080BC704780B584B000AF78600B46FB7080
:1041A000FB7878681946FEF7A9FE7B684FF001029C
:1041B00083F812217B684FF0000283F814214FF03E
:1041C0000003FB602DE0FA6813464FEA83039B1857
:1041D0004FEAC30303F58C737A68D31803F1040321
:1041E000BB60BB684FF001025A70FB68DAB2BB6873
:1041F0001A70FB689AB2BB68DA80BB684FF00002A5
:10420000DA70BB684FF040029A60BB684FF0000262
:10421000DA60BB684FF000025A61FB6803F10103EA
:10422000FB607B685B781A46FB689A42CBD84FF0FC
:104230000003FB602DE0FA6813464FEA83039B18E6
:104240004FEAC30303F55C737A68D31803F10403E0
:10425000BB60BB684FF000025A70FB68DAB2BB6803
:104260001A70FB689AB2BB68DA80BB684FF0000234
:10427000DA70BB684FF040029A60BB684FF00002F2
:10428000DA60BB684FF000025A61FB6803F101037A
:10429000FB607B685B781A46FB689A42CBD87868EB
:1042A000FEF7C8FF7868FEF703FF78684FF000015B
:1042B000FFF756F87868FFF7DBF87868FEF79CFFA1
:1042C00007F11007BD4680BD80B584B000AF7860AF
:1042D000F9703A80BB70FB785BB2002B10DAFB7888
:1042E00003F07F0213464FEA83039B184FEAC30390
:1042F00003F58C737A68D31803F10403FB600FE0B5
:10430000FB7803F07F0213464FEA83039B184FEAC2
:10431000C30303F55C737A68D31803F10403FB60ED
:10432000FB7803F07F03DAB2FB681A70FB784FEA80
:10433000D313DBB21A46FB685A703A88FB689A605E
:10434000FB68BA78DA70FB685B78002B04D0FB68F6
:104350001B781A46FB68DA80BB78022B03D1FB6816
:104360004FF000021A717868F968FFF7CBFA4FF046
:104370000003184607F11007BD4680BD80B584B024
:1043800000AF78600B46FB70FB785BB2002B10DA55
:10439000FB7803F07F0213464FEA83039B184FEA32
:1043A000C30303F58C737A68D31803F10403FB602D
:1043B0000FE0FB7803F07F0213464FEA83039B185C
:1043C0004FEAC30303F55C737A68D31803F104035F
:1043D000FB60FB7803F07F03DAB2FB681A70FB78AE
:1043E0004FEAD313DBB21A46FB685A707868F96853
:1043F000FFF704FB4FF00003184607F11007BD4616
:1044000080BD00BF80B586B000AFF8607A600A4614
:10441000FA723B81FB7A03F07F0213464FEA830373
:104420009B184FEAC30303F55C73FA68D31803F1D2
:1044300004037B617B697A68DA603A897B695A6137
:104440007B694FF000029A617B694FF000025A705D
:10445000FB7A03F07F03DAB27B691A70FB68DB78C2
:10446000012B02D17A687B691A617B691B78002B6A
:1044700004D1F8687969FFF781FC03E0F86879698D
:10448000FFF70EFB4FF00003184607F11807BD4673
:1044900080BD00BF80B586B000AFF8607A603B6039
:1044A0000B46FB72FB7A03F07F0213464FEA83034D
:1044B0009B184FEAC30303F58C73FA68D31803F112
:1044C00004037B617B694FF001025A70FB7A03F0B1
:1044D0007F03DAB27B691A707B697A68DA607A687E
:1044E0007B691A617B694FF000029A617B693A68C7
:1044F0005A617B691B78002B04D1F8687969FFF752
:104500003DFC03E0F8687969FFF7CAFA4FF0000351
:10451000184607F11807BD4680BD00BF80B584B0BE
:1045200000AF78600B46FB70FB785BB2002B10DAB3
:10453000FB7803F07F0213464FEA83039B184FEA90
:10454000C30303F58C737A68D31803F10403FB608B
:104550000DE0FA7813464FEA83039B184FEAC30332
:1045600003F55C737A68D31803F10403FB60FB68FE
:104570004FF001029A70FB7803F07F03DAB2FB6818
:104580001A70FB784FEAD313DBB21A46FB685A70F5
:104590007868F968FFF7E8FC4FF00003184607F168
:1045A0001007BD4680BD00BF80B584B000AF786005
:1045B0000B46FB70FB785BB2002B10DAFB7803F044
:1045C0007F0213464FEA83039B184FEAC30303F5A8
:1045D0008C737A68D31803F10403FB600DE0FA785A
:1045E00013464FEA83039B184FEAC30303F55C733A
:1045F0007A68D31803F10403FB60FB684FF00002F4
:104600009A70FB7803F07F03DAB2FB681A70FB78CC
:104610004FEAD313DBB21A46FB685A707868F96820
:10462000FFF7ECFC4FF00003184607F11007BD46FA
:1046300080BD00BF80B485B000AF78600B46FB70D2
:104640004FF00003FB60FB7803F07F03DAB2FB68F6
:1046500062F30A13FB607B681B697A681269116850
:10466000FA680A431A6007F11407BD4680BC704718
:1046700080B586B000AF78604FF000037B6178684A
:10468000FEF7B0FE0346002B00F0B8807868FEF716
:10469000BBFE03463B613B69002B02D14FF0000398
:1046A000ADE0BB7C03F00803DBB2002B06D07868DA
:1046B00000F070FA03467A6913437B61BB7C03F018
:1046C0000403DBB2002B06D0786800F08BF90346B8
:1046D0007A6913437B613B7C03F00203DBB2002B5E
:1046E0000AD04FF00003FB60FB6843F00203FB605D
:1046F0007B68DB68FA685A61FB7C23F07F03DBB2DE
:10470000002B06D0786800F0BFF803467A6913439F
:104710007B617B7C03F00803DBB2002B06D078685A
:1047200000F0F8F803467A6913437B613B7C03F0A1
:104730000803DBB2002B06D0786800F0EDFA0346E0
:104740007A6913437B613B7C03F01003DBB2002BDF
:1047500006D0786800F0FEFA03467A6913437B615D
:104760007B7C03F01003DBB2002B06D0786800F0EE
:1047700015FC03467A6913437B617B7C03F02003BD
:10478000DBB2002B06D0786800F0B4FC03467A69EF
:1047900013437B61BB7C03F01003DBB2002B06D01C
:1047A000786800F0BDFD03467A6913437B61BB7CEA
:1047B00003F02003DBB2002B06D0786800F0CEFDBA
:1047C00003467A6913437B61FB7C03F04003DBB251
:1047D000002B06D0786800F017F803467A69134377
:1047E0007B613B7C03F00403DBB2002B06D07868CE
:1047F00000F028F803467A6913437B617B69184609
:1048000007F11807BD4680BD80B584B000AF786061
:1048100040F24C13C2F200031B685B6A7868984749
:104820004FF00003FB60FB6843F08043FB607B6854
:10483000DB68FA685A614FF00103184607F1100768
:10484000BD4680BD80B584B000AF78607B68DB6812
:104850005B68FB603B7B03F00403DBB2002B07D0FB
:1048600040F24C13C2F200031B689B6A78689847B9
:104870007B68DB68FA685A604FF00103184607F15D
:104880001007BD4680BD00BF80B586B000AF786020
:104890007B689B7A002B11D07B68D3F80C311B68A6
:1048A000FB60FB686FF34103FB60FB686FF3000381
:1048B000FB607B68D3F80C31FA681A604FF0000394
:1048C0003B613B6943F001033B617B681B697A688C
:1048D000126951683A696FEA02020A405A6040F26E
:1048E0004C13C2F200031B689B69786898474FF02D
:1048F00000037B617B6943F000437B617B68DB687D
:104900007A695A614FF00103184607F11807BD464E
:1049100080BD00BF80B586B000AF78604FF0000367
:10492000FB727B6893F81231FB7240F24C13C2F2B7
:1049300000031B685B69786898477B681B699B6804
:10494000FB604FF000037B617B6943F400637B6194
:104950007B68DB687A695A617B689B7A002B39D067
:104960003B7B03F00103DBB2002B33D07B6893F871
:104970001531012B2ED1FB7ADBB2032B2AD14FF05C
:1049800000033B613B6943F001033B617B68D3F863
:104990000C317A68D2F80C2111683A690A431A601E
:1049A0003B6943F002033B617B68D3F80C317A68C2
:1049B000D2F80C2111683A690A431A604FF46D432A
:1049C000CEF200034FF46D42CEF20002126942F0C3
:1049D00006021A614FF00103184607F11807BD4699
:1049E00080BD00BF80B586B000AF78604FF0000397
:1049F0003B614FF00003BB607868FFF777FB78619D
:104A0000BCE07B6903F00103002B00F0AF803B6941
:104A1000DBB27868194600F0BFFC0346BB603B7A06
:104A200003F00103DBB2002B3AD03B694FF00102E7
:104A300002FA03F3FB607B681B697A681269516BA9
:104A4000FA686FEA02020A405A634FF00003BB6043
:104A5000BB6843F00103BB607A683B6903F1040360
:104A60004FEA8303D3189B68BA689A6040F24C13EC
:104A7000C2F200031B685B683A69D2B278681146DB
:104A800098477B68DB78012B0AD13B69002B07D163
:104A90007B6893F81131042B02D17868FFF740FB53
:104AA0003B7A03F00803DBB2002B10D04FF0000379
:104AB000BB60BB6843F00803BB607A683B6903F1E5
:104AC00004034FEA8303D3189B68BA689A603B7A61
:104AD00003F01003DBB2002B10D04FF00003BB60DB
:104AE000BB6843F01003BB607A683B6903F10403C1
:104AF0004FEA8303D3189B68BA689A603B7A03F045
:104B00004003DBB2002B10D04FF00003BB60BB684A
:104B100043F04003BB607A683B6903F104034FEA4A
:104B20008303D3189B68BA689A603B7A03F0020348
:104B3000DBB2002B10D04FF00003BB60BB6843F02A
:104B40000203BB607A683B6903F104034FEA830305
:104B5000D3189B68BA689A603B7A23F07F03DBB274
:104B6000002B03D07868396900F080F93B6903F1C4
:104B700001033B617B694FEA53037B617B69002B37
:104B80007FF43FAF4FF00103184607F11807BD4609
:104B900080BD00BF80B586B000AF78604FF00003E5
:104BA0003B614FF00003FB607868FFF769FA7861BA
:104BB000A6E07B6903F00103002B00F099803B69BC
:104BC000DBB278681946FFF773FA0346FB603B7B5C
:104BD00003F00103DBB2002B54D04FF00003FB6065
:104BE000FB6843F00103FB607A683B6903F114033F
:104BF0004FEA8303D3185B68FA689A607B68DB78B6
:104C0000012B25D17A683B6903F114034FEA830332
:104C1000D3185B681B69BB6079683A6913464FEA31
:104C200083039B184FEAC303CB1803F55F731A681D
:104C3000BB68C3F31203D11A78683A6913464FEA86
:104C400083039B184FEAC303C31803F5637319600A
:104C500040F24C13C2F200031B681B683A69D2B2DF
:104C60007868114698477B68DB78012B0AD13B694D
:104C7000002B07D17B6893F81131052B02D178689E
:104C8000FFF74EFA3B7B03F00203DBB2002B10D0A0
:104C90004FF00003FB60FB6843F00203FB607A689F
:104CA0003B6903F114034FEA8303D3185B68FA6886
:104CB0009A603B7B03F00803DBB2002B18D040F274
:104CC0004C13C2F200031B689B68786898474FF04A
:104CD0000003FB60FB6843F00803FB607A683B69F4
:104CE00003F114034FEA8303D3185B68FA689A60F0
:104CF0003B6903F101033B617B694FEA53037B612D
:104D00007B69002B7FF455AF4FF00103184607F184
:104D10001807BD4680BD00BF80B584B000AF786085
:104D200040F24C13C2F200031B68DB6878689847B6
:104D30004FF00003FB60FB6843F00803FB607B68F7
:104D4000DB68FA685A614FF00103184607F1100753
:104D5000BD4680BD80B586B000AF78604FF00003DF
:104D60003B613B6943F010033B617B68DB687A6819
:104D7000D26891693A696FEA02020A409A617B68D7
:104D8000DB681B6AFB60FB68C3F30303DBB21A46F4
:104D900013464FEA83039B184FEAC30303F55C7382
:104DA0007A68D31803F104037B61FB68C3F34343C0
:104DB000DBB203F1FF33052B46D801A252F823F0F2
:104DC000494E0008D94D0008494E0008494E0008D8
:104DD000494E0008234E0008BA8947F6F073134085
:104DE0009BB2002B32D07B69DA68FB68C3F30A13ED
:104DF0009BB2786811461A46FEF74CF87B69DA6870
:104E0000FB68C3F30A139BB2D2187B69DA607B6933
:104E10009A69FB68C3F30A139BB2D2187B699A6143
:104E200014E07B6803F2CC53786819464FF008020F
:104E3000FEF730F87B699A69FB68C3F30A139BB2EB
:104E4000D2187B699A6102E000BF00E000BF7B6876
:104E5000DB687A68D26891693A690A439A614FF0CF
:104E60000103184607F11807BD4680BD80B588B01C
:104E700000AF786039604FF00003FB614FF0000332
:104E8000FB603A6813464FEA83039B184FEAC3035B
:104E900003F58C737A68D31803F104037B617B6993
:104EA0005A697B699B69D31AFB617B699A68FB69C4
:104EB0009A4202D27B699B68FB61FB6903F10303A1
:104EC0004FEA9303BB617A683B6803F104034FEA3E
:104ED0008303D3189B689B69FB6049E07B695A692F
:104EE0007B699B69D31AFB617B699A68FB699A426B
:104EF00002D27B699B68FB61FB6903F103034FEA04
:104F00009303BB617B69D9683B68DAB2FB699BB2EA
:104F10007868FDF77BFF7B69DA68FB69D2187B69EB
:104F2000DA607B699A69FB69D2187B699A617A6851
:104F30003B6803F104034FEA8303D3189B689B6922
:104F4000FB607B695A697B699B699A4210D17B69D6
:104F50001B784FF0010202FA03F33B617B681B6987
:104F60007A681269516B3A696FEA02020A405A6321
:104F7000BB891A46BB699A4209D97B699A697B69E0
:104F80005B699A4203D27B695B69002BA6D14FF023
:104F90000103184607F12007BD4680BD80B58AB0E1
:104FA00000AF78604FF000033B614FF000033B62BD
:104FB0004FF00003FB614FF00003BB614FF00003B3
:104FC0007B614FF00003FB603B6943F001033B61F1
:104FD0007B681B697A68126951683A696FEA020254
:104FE0000A405A6078684FF00001FEF743F94FF02D
:104FF00000037B6219E07A687B6A03F104034FEADD
:105000008303D3189B684FF0FF029A607A687B6A2B
:1050100003F114034FEA8303D3185B684FF0FF02D8
:105020009A607B6A03F101037B627B685B781A46B6
:105030007B6A9A42DFD87B681B694FF0FF329A6126
:105040003B6A4FF0010262F30F033B623B6A4FF091
:10505000010262F31F433B627B681B693A6ADA61B3
:10506000FB6943F00803FB61FB6943F00103FB614B
:10507000FB6943F00203FB617B681B69FA695A61B3
:10508000BB6943F00103BB61BB6943F00803BB612B
:10509000BB6943F00203BB617B681B69BA691A6193
:1050A0007B681B691B687B617B696FF30A137B61FB
:1050B0007B681B697A691A607868FFF731F84FF0EE
:1050C0000003FB60FB6843F48053FB607B68DB6894
:1050D000FA685A6140F24C13C2F200031B681B6964
:1050E000786898474FF00103184607F12807BD4636
:1050F00080BD00BF80B58AB000AF78604FF4F44344
:10510000C0F603237B627868FEF7ACFB07F10C0363
:10511000184602F0FDFE3B697B627B68DB68DB685A
:10512000FB61FB696FF38D23FB617B68DB68FA69C8
:10513000DA607868FEF762FB0346032B0ED17B68CA
:105140004FF000029A707B684FF400729A80FB69FE
:105150004FF0090262F38D23FB61CAE07B684FF0D8
:1051600001029A707B684FF040029A807A6A4EF290
:10517000BF13C0F2E4039A420DD97A6A42F2FF33B8
:10518000C0F2F4039A4206D8FB694FF00E0262F3B4
:105190008D23FB61ADE07A6A42F2FF33C0F2F40383
:1051A0009A420DD97A6A4EF6DF43C0F204139A424E
:1051B00006D8FB694FF00D0262F38D23FB6198E086
:1051C0007A6A4EF6DF43C0F204139A420DD97A6A26
:1051D0004CF2FF23C0F218139A4206D8FB694FF035
:1051E0000C0262F38D23FB6183E07A6A4CF2FF23A9
:1051F000C0F218139A420DD97A6A42F6FF43C0F200
:1052000031139A4206D8FB694FF00B0262F38D23EB
:10521000FB616EE07A6A42F6FF43C0F231139A42B4
:105220000DD97A6A4AF23F43C0F24C139A4206D82B
:10523000FB694FF00A0262F38D23FB6159E07A6A41
:105240004AF23F43C0F24C139A420DD97A6A43F2B4
:10525000FF53C0F26E139A4206D8FB694FF0090261
:1052600062F38D23FB6144E07A6A43F2FF53C0F29C
:105270006E139A420DD97A6A4EF23F23C0F295130B
:105280009A4206D8FB694FF0080262F38D23FB6156
:105290002FE07A6A4EF23F23C0F295139A420DD95D
:1052A0007A6A4CF27F33C0F2C9139A4206D8FB697E
:1052B0004FF0070262F38D23FB611AE07A6A4CF229
:1052C0007F33C0F2C9139A420DD97A6A46F25F035E
:1052D000C0F20B239A4206D8FB694FF0060262F334
:1052E0008D23FB6105E0FB694FF0050262F38D231E
:1052F000FB617B68DB68FA69DA604FF000033B62B0
:105300003B6A43F400533B627B68DB683A6A5A614C
:105310004FF00103184607F12807BD4680BD00BFC6
:1053200080B584B000AF78604FF00003FB6040F2BE
:105330004C13C2F200031B68DB6978689847FB686E
:1053400043F48013FB607B68DB68FA685A614FF0B6
:105350000103184607F11007BD4680BD80B584B033
:1053600000AF78604FF00003FB6040F24C13C2F2D4
:1053700000031B681B6A78689847FB6843F40013B6
:10538000FB607B68DB68FA685A614FF001031846DE
:1053900007F11007BD4680BD80B487B000AF7860CC
:1053A0000B46FB707B681B691B697B617B681B6913
:1053B0005B6B3B61FB783A6922FA03F34FEAC31354
:1053C000DBB27A6913437B61FB787A6803F10403EB
:1053D0004FEA8303D3189B689A687B691340FB608C
:1053E000FB68184607F11C07BD4680BC704700BF2C
:1053F00080B584B000AFF8607A603B600B46FB720A
:10540000F86801F0E5FBF86800F01EF8FB683A6800
:10541000C3F8E425FB68BA69C3F8E825FB687A6835
:10542000C3F8EC25FB7AF8681946FEF7B3FEFB6873
:10543000D3F8E8351B689847F86801F051FC07F18C
:105440001007BD4680BD00BF80B483B000AF786058
:105450004FF00003184607F10C07BD4680BC7047AB
:1054600080B584B000AF786007F10803786819460A
:1054700000F05AFF3B7A03F01F03012B0AD0022BE6
:105480000FD0002B14D107F108037868194600F0FB
:10549000FBFA16E007F108037868194600F046FBAE
:1054A0000FE007F108037868194600F075FB08E083
:1054B0003B7A23F07F03DBB278681946FFF72EF8BA
:1054C00000BF4FF00003184607F11007BD4680BD2E
:1054D00080B584B000AF78600B46FB70FB78002B82
:1054E00045D17B6803F55D73FB607B6893F81131F0
:1054F000032B4FD1FB68DA69FB689B689A4221D97C
:10550000FB68DA69FB689B68D21AFB68DA617B6822
:10551000DB78012B06D1FB68DA68FB689B68D21840
:10552000FB68DA60FB68DA68FB689968FB68DB692E
:10553000994238BF0B469BB2786811461A4600F074
:105540004FFA27E07B68D3F8E4351B69002B0AD0BB
:105550007B6893F81231032B05D17B68D3F8E435CF
:105560001B6978689847786800F052FA12E07B6807
:10557000D3F8E4359B69002B0CD07B6893F812318B
:10558000032B07D17B68D3F8E4359B69FA787868F8
:10559000114698474FF00003184607F11007BD4623
:1055A00080BD00BF80B584B000AF78600B46FB7053
:1055B000FB78002B40F083807B6803F58E73FB60E3
:1055C0007B6893F81131022B6BD1FB68DA69FB68B9
:1055D0009B689A4225D9FB68DA69FB689B68D21AF6
:1055E000FB68DA617B68DB78012B06D1FB68DA683F
:1055F000FB689B68D218FB68DA60FB68DA68FB68B6
:10560000DB699BB2786811461A4600F0ADF97868FC
:105610004FF000014FF000024FF00003FEF7F2FEE2
:105620003FE0FB681B6AFA689268B3FBF2F102FB89
:1056300001F29B1A002B20D1FB681A6AFB689B6859
:105640009A421AD3FB681A6AFB685B6A9A4214D2C0
:1056500078684FF000014FF0000200F085F9FB6818
:105660004FF000025A6278684FF000014FF00002DC
:105670004FF00003FEF7C6FE13E07B68D3F8E43575
:10568000DB68002B0AD07B6893F81231032B05D11D
:105690007B68D3F8E435DB6878689847786800F071
:1056A000D5F97B6893F81631012B1BD1786800F08F
:1056B00021F87B684FF0000283F8162112E07B6826
:1056C000D3F8E4355B69002B0CD07B6893F812317A
:1056D000032B07D17B68D3F8E4355B69FA787868E7
:1056E000114698474FF00003184607F11007BD46D2
:1056F00080BD00BF80B483B000AF78607B681A695A
:1057000041F2B453C2F200031B6853604FF0000330
:10571000184607F10C07BD4680BC704780B582B0C3
:1057200000AF786078684FF000014FF040024FF012
:105730000003FEF7C9FD78684FF080014FF040028A
:105740004FF00003FEF7C0FD7B684FF0010283F8C5
:1057500012217B68D3F8E8355B687A689278104646
:1057600098474FF00003184607F10807BD4680BD73
:1057700080B582B000AF78607B68D3F8E8351B69EC
:1057800098477B6893F813217B6883F812217B6824
:105790004FF0030283F812214FF00003184607F17F
:1057A0000807BD4680BD00BF80B582B000AF7860FD
:1057B0007B6893F812217B6883F813217B684FF094
:1057C000040283F812217B68D3F8E835DB68984738
:1057D0004FF00003184607F10807BD4680BD00BF23
:1057E00080B582B000AF78607B68D3F8E435DB69C0
:1057F000002B05D07B68D3F8E435DB6978689847DF
:105800004FF00003184607F10807BD4680BD00BFF2
:1058100080B582B000AF78600B46FB707B68D3F830
:10582000E4351B68FA787868114698477B68D3F8A6
:10583000E8359B6898474FF00003184607F10807C2
:10584000BD4680BD80B582B000AF78600B46FB706E
:105850007B68D3F8E4355B68FA7878681146984736
:105860004FF00003184607F10807BD4680BD00BF92
:1058700080B582B000AF78607B68D3F8E4351B6AEE
:10588000786898474FF00003184607F10807BD46AF
:1058900080BD00BF80B582B000AF78607B68D3F870
:1058A000E4355B6A786898474FF00003184607F1C3
:1058B0000807BD4680BD00BF80B582B000AF7860EC
:1058C0007B68D3F8E8355B6998477B684FF0010245
:1058D00083F815214FF00003184607F10807BD466D
:1058E00080BD00BF80B582B000AF78607B68D3F820
:1058F000E8359B6998477B68D3F8E4355B6878683E
:105900004FF0000198477B684FF0000283F81521A3
:105910004FF00003184607F10807BD4680BD00BFE1
:1059200080B586B000AFF860B9601346FB804FF0D9
:105930000003FB75FA88FB68C3F83C21FA88FB6812
:10594000C3F83821FB684FF0020283F81121FB886D
:10595000F8684FF00001BA68FEF79CFDFB7D184621
:1059600007F11807BD4680BD80B586B000AFF8606E
:10597000B9601346FB804FF00003FB75FB88F868A5
:105980004FF00001BA68FEF785FDFB7D184607F170
:105990001807BD4680BD00BF80B586B000AFF86077
:1059A000B9601346FB804FF00003FB75FA88FB6873
:1059B000C3F89423FA88FB68C3F89023FB684FF080
:1059C000030283F81121FB88F8684FF00001BA68E0
:1059D000FEF718FDFB7D184607F11807BD4680BD90
:1059E00080B586B000AFF860B9601346FB804FF019
:1059F0000003FB75FB88F8684FF00001BA68FEF7FA
:105A000001FDFB7D184607F11807BD4680BD00BFAC
:105A100080B584B000AF78604FF00003FB737B6803
:105A20004FF0040283F8112178684FF000014FF025
:105A300000024FF00003FEF72DFD7868FEF770FBC3
:105A4000FB7B184607F11007BD4680BD80B584B0CA
:105A500000AF78604FF00003FB737B684FF00502E6
:105A600083F8112178684FF000014FF000024FF0E9
:105A70000003FEF7C7FC7868FEF752FBFB7B184675
:105A800007F11007BD4680BD80B584B000AF7860D7
:105A900039604FF00003FB733B685B78092B3AD801
:105AA00001A252F823F000BFF95A00080D5B00086C
:105AB000175B0008035B0008175B0008DB5A00084F
:105AC000D15A0008175B0008EF5A0008E55A000891
:105AD0007868396800F060F922E07868396800F089
