:020000040800F2
:100000000000022041920008796D0008856D00080B
:100010008D6D0008956D00089D6D000800000000C2
:10002000000000000000000000000000A56D0008B6
:10003000B16D000800000000BD6D0008C96D00082A
:100040009B9200089D9200089F920008A1920008D0
:10005000A3920008A5920008A7920008A9920008A0
:10006000AB920008AD920008AF920008B192000870
:10007000B3920008B592000899230008B9920008CD
:1000800025210008BD920008BF920008C192000817
:10009000C3920008C5920008C7920008C9920008E0
:1000A000CB920008CD920008CF920008D1920008B0
:1000B000C5120008D5920008D7920008D99200080E
:1000C000DB920008DD920008DF920008E192000850
:1000D000E3920008D9270008150D0008396A0008C6
:1000E000EB920008ED920008EF920008F1920008F0
:1000F000F3920008F5920008F7920008F9920008C0
:10010000FB920008FD920008FF920008019300088E
:100110000393000805930008511100089912000884
:10012000ED1000080D930008BD260008119300088B
:1001300013930008159300081793000819930008FB
:100140001B9300081D9300081F930008D56D00083D
:10015000239300082593000827930008050F000843
:100160002B9300082D9300082F930008319300086B
:10017000339300083593000837930008399300083B
:100180003B9300083D93000810B5054C237833B924
:10019000044B13B10448AFF300800123237010BD5A
:1001A000800A0020000000009CF1000808B5064B02
:1001B0001BB106480649AFF300800648036813B137
:1001C000054B03B1984708BD000000009CF10008F2
:1001D000840A0020800A002000000000154B002B3C
:1001E00008BF134B9D46A3F5803A00218B460F466E
:1001F0001348144A121A09F05FFF0F4B002B00D06E
:1002000098470E4B002B00D0984700200021040097
:100210000D000D48002802D00C480BF01FFB09F020
:1002200089FE2000290008F0B1FF09F073FE00BF2D
:100230000000080000000220000000000000000094
:10024000800A0020101D00205DB8000819C80008B1
:1002500080B58AB000AF07F06FFA4FF000033B6241
:100260004FF000033B614FF001037B754FF000033B
:10027000FB614FF0020387F824304FF001033B7518
:1002800007F110034FF40050C4F20100194607F0C3
:1002900063FA4FF000033B604FF000037B604FF0C8
:1002A0000003FB604FF00003BB603B46184607F0BD
:1002B000AFFA4FF40050C4F201004FF00C014FF0C0
:1002C00002024FF0070307F0EDFA4FF40050C4F2BA
:1002D00001004FF00B014FF001024FF0070307F050
:1002E000E1FA4FF40050C4F201004FF0010107F0B1
:1002F000E3FB4FF40050C4F201004FF0010107F09E
:10030000BFFB4FF40050C4F201004FF0010107F0B1
:10031000ADFA4FF40050C4F2010007F0A1FB07F161
:100320002807BD4680BD00BF80B590B000AF46F243
:100330007040C4F2020007F0DBFB4FF000037B606B
:1003400042F24C03C4F20103BB6040F62C33C2F20C
:100350000003FB604FF000033B614FF002037B6141
:100360004FF00003BB614FF48063FB614FF4006307
:100370003B624FF400537B624FF48073BB624FF4D7
:100380000033FB624FF000033B634FF001037B63DC
:100390004FF00003BB634FF00003FB6307F104035E
:1003A00046F27040C4F20200194607F0C3FC46F260
:1003B0007040C4F202004FF0010107F013FD07F195
:1003C0004007BD4680BD00BF80B485B000AF7860F7
:1003D0007B6893ED037A7B68D3ED047A77EE677AD6
:1003E000C7ED037A7B68D3ED057A97ED037A77EE54
:1003F000677AC7ED027A7B68FA685A617B6893ED89
:10040000067AD7ED037A77EE277A7B68C3ED067A12
:100410007B6893ED067A7B68D3ED077AB4EEE77AD2
:10042000F1EE10FA03DD7B68DA697B689A617B681C
:1004300093ED067A7B68D3ED077AF1EE677AB4EE36
:10044000E77AF1EE10FA07D57B68D3ED077AF1EE83
:10045000677A7B68C3ED067A7B6893F83030002BAF
:1004600000F098807B6893ED007AD7ED037A27EE51
:10047000277A7B68D3ED016A7B68D3ED067A66EE56
:10048000A77A37EE277A7B68D3ED026AD7ED027A36
:1004900066EEA77A77EE277A7B68C3ED0B7A7B68E6
:1004A00093ED0B7A7B68D3ED087AB4EEE77AF1EE40
:1004B00010FA04DD7B681A6A7B68DA6214E07B68F4
:1004C00093ED0B7A7B68D3ED087AF1EE677AB4EEA0
:1004D000E77AF1EE10FA07D57B68D3ED087AF1EEF2
:1004E000677A7B68C3ED0B7A7B6893ED0B7A7B6848
:1004F000D3ED097AB4EEE77AF1EE10FA10D57B6805
:1005000093ED0B7A7B68D3ED097AF1EE677AB4EE5E
:10051000E77AF1EE10FA03DD7B684FF00002DA6251
:100520007B6893ED0B7A7B68D3ED0F7AB4EEE77AB4
:10053000F1EE10FA28D87B6893ED0B7A7B68D3ED47
:100540000F7AF1EE677AB4EEE77AF1EE10FA1BDB80
:100550007B6893ED0E7AD7ED037AB4EEE77AF1EE8D
:1005600010FA11DB7B68D3ED0E7AB1EE677AD7ED26
:10057000037AB4EEE77AF1EE10FA05D87B684FF013
:10058000010283F831200EE07B684FF0000283F80F
:10059000312008E07B684FF00002DA627B684FF0A0
:1005A000000283F831207B68DA6A7B68DA6207F13F
:1005B0001407BD4680BC704780B582B000AF4FF0D5
:1005C0000003FB7163E0F979FA7940F6B833C2F2BF
:1005D00000034FEA82029B181A6840F63833C2F2D1
:1005E00000034FEA81115B1803F10C031A6040F21B
:1005F0000003C2F200039A6A40F63833C2F20003E5
:100600001A6540F20003C2F200031A6940F638335B
:10061000C2F200031A6140F20003C2F200031B6839
:10062000012B30D1FB794FEA831240F63833C2F206
:100630000003D3181846FFF7C7FEFB79012B0FD133
:1006400040F63833C2F20003D3ED1B7AF1EE677A3D
:10065000FDEEE77A40F20003C2F20003C3ED0D7A2B
:10066000FB79002B0FD140F63833C2F20003D3EDF3
:100670000B7AF1EE677AFDEEE77A40F20003C2F200
:100680000003C3ED077AFB7903F10103FB71FB79EA
:10069000012B98D907F10807BD4680BD80B483B00F
:1006A00000AF4FF000037B604FF000037B6084E0FD
:1006B00040F63833C2F200037A684FEA82129B1880
:1006C0004FF00002C4F2FA421A6040F63833C2F228
:1006D00000037A684FEA82129B1803F1040346F282
:1006E0006662C3F686721A6040F63833C2F20003BF
:1006F0007A684FEA82129B1803F108034FF07E528A
:100700001A6040F63833C2F200037A684FEA821268
:100710009B1803F130034FF001021A7040F6383392
:10072000C2F200037A684FEA82129B1803F1380381
:100730004FF00002C4F240021A6040F63833C2F2B1
:1007400000037A684FEA82129B1803F13C034FF0D2
:100750000002C4F27A421A6040F63833C2F2000353
:100760007A684FEA82129B1803F11C034FF00002D3
:10077000C4F248221A6040F63833C2F200037A68A5
:100780004FEA82129B1803F120034FF00002C4F2DB
:10079000FA321A6040F63833C2F200037A684FEA40
:1007A00082129B1803F124034FF00002C4F2A0123E
:1007B0001A607B6803F101037B607B68022B7FF783
:1007C00077AF07F10C07BD4680BC704780B586B097
:1007D00000AF4FF003004FF0010107F0DFFD4FF0D5
:1007E00002033B754FF00103FB754FF0C0033B6103
:1007F00007F110034FF00000C4F20200194607F0A1
:100800009DFB4FF420633B6107F110034FF48050D0
:10081000C4F20200194607F091FB4FF00000C4F249
:1008200002004FF006014FF0020207F029FC4FF0E2
:100830000000C4F202004FF007014FF0020207F07F
:100840001FFC4FF48050C4F202004FF009014FF03A
:10085000010207F015FC4FF48050C4F202004FF083
:100860000B014FF0010207F00BFC4FF48060C4F263
:1008700000004FF0FF3107F097FE4FF00000C4F288
:1008800001004FF0FF3107F08FFE4FF00000C4F27F
:1008900001004FF003014FF000024FF0000308F099
:1008A00023F84FF48060C4F200004FF003014FF0D2
:1008B00000024FF0000308F017F84FF00003BB8070
:1008C0004FF00F03BB814FF00A03FB804FF0000392
:1008D0007B814FF003033B8107F104034FF00000DD
:1008E000C4F20100194607F099FE07F104034FF422
:1008F0008060C4F20000194607F090FE4FF000003F
:10090000C4F201004FF0010107F068FE4FF480606F
:10091000C4F200004FF0010107F060FE00F004F89F
:1009200007F11807BD4680BD80B500AF72B640F62E
:100930009C23C2F200034FF000021A8040F69E236F
:10094000C2F200034FF000021A8040F6D833C2F220
:1009500000034FF000021A6040F6D433C2F20003E5
:100960004FF000021A6040F6C433C2F200034FF0A9
:1009700000021A6040F6CC33C2F200034FF00002CE
:100980001A604FF00000C4F201004FF0000107F0C0
:10099000FDFD4FF48060C4F200004FF0000107F04D
:1009A000F5FD00F003F862B680BD00BF80B500AF72
:1009B00040F6A023C2F200031B889AB240F69C23A3
:1009C000C2F200031A804FF00000C4F2010007F0E9
:1009D000F9FD03469AB240F6A023C2F200031A8042
:1009E00040F6A223C2F200031B889AB240F69E236F
:1009F000C2F200031A804FF48060C4F2000007F0D6
:100A0000E1FD03469BB2C3F100039BB29AB240F6EC
:100A1000A223C2F200031A8040F6A023C2F2000310
:100A20001B889BB29AB240F69C23C2F200031B883B
:100A30009BB29BB2D31A9BB29AB240F6D033C2F2A9
:100A400000031A8040F6A223C2F200031B889BB267
:100A50009AB240F69E23C2F200031B889BB29BB25F
:100A6000D31A9BB29AB240F6DC33C2F200031A806A
:100A700040F6D033C2F200031B889BB29AB240F614
:100A8000DC33C2F200031B889BB29BB2D3189BB22B
:100A90009AB240F6C833C2F200031A8040F6DC3343
:100AA000C2F200031B889BB29AB240F6D033C2F266
:100AB00000031B889BB29BB2D31A9BB29AB240F63A
:100AC000C033C2F200031A8040F6C833C2F20003FA
:100AD0001B889BB21BB207EE903AB8EEE77A40F65D
:100AE000C433C2F20003D3ED007A77EE277A40F6E2
:100AF000C433C2F20003C3ED007A40F6C033C2F241
:100B000000031B889BB21BB207EE903AB8EEE77A5F
:100B100040F6CC33C2F20003D3ED007A77EE277AA9
:100B200040F6CC33C2F20003C3ED007A40F6D03376
:100B3000C2F200031B889BB21BB207EE903AB8EEDC
:100B4000E77A40F6D833C2F20003D3ED007A77EEAD
:100B5000277A40F6D833C2F20003C3ED007A40F69C
:100B6000DC33C2F200031B889BB21BB207EE903A43
:100B7000B8EEE77A40F6D433C2F20003D3ED007A40
:100B800077EE277A40F6D433C2F20003C3ED007A41
:100B900080BD00BF80B58AB000AF4FF004004FF0B9
:100BA000010107F0A7FB4FF400533B624FF0010334
:100BB00087F824304FF0000387F827304FF0000308
:100BC00087F826304FF0030387F8253007F120031C
:100BD0004FF40060C4F20200194607F0AFF94FF07D
:100BE00001004FF0010107F085FB4FF007033B6266
:100BF0004FF0020387F8243007F120034FF0000084
:100C0000C4F20200194607F099F94FF00000C4F24F
:100C100002004FF000014FF0010207F031FA4FF0EF
:100C20000000C4F202004FF001014FF0010207F092
:100C300027FA4FF00000C4F202004FF002014FF01B
:100C4000010207F01DFA4FF001004FF0010107F01B
:100C5000A5FB4FF07E03BB824FF00003FB824FF6F3
:100C6000FF73BB614FF00003BB834FF00003BB7702
:100C700007F114034FF08040194607F00DFC4FF0C8
:100C800080404FF0010107F079FE4FF080404FF0B7
:100C9000400107F0F1FD4FF080404FF0040107F0F4
:100CA00007FE4FF000033B814FF00F033B824FF0F4
:100CB0000A037B814FF00003FB814FF00303BB81EC
:100CC00007F108034FF08040194607F0A7FC4FF0EA
:100CD00080404FF002014FF0010207F067FD4FF036
:100CE0001C033B714FF001037B714FF00103BB719B
:100CF0004FF00103FB7107F10403184606F0AAFC4C
:100D00004FF080404FF0010107F068FC07F1280721
:100D1000BD4680BD80B500AF4FF48840C4F20000EE
:100D200040F2266108F0DEF80346002B00F0E88070
:100D30004FF48840C4F2000040F2266108F034F914
:100D400040F26403C2F200031B68002B11D140F291
:100D50006C03C2F200031B689BB26FEA03039BB2F1
:100D6000DBB29BB24FF48840C4F20000194608F091
:100D700041F840F26403C2F200031B68012B11D159
:100D800040F26C03C2F200031B689BB26FEA0303DC
:100D90009BB2DBB29BB24FF48840C4F2000019460C
:100DA00008F028F840F26403C2F200031B68022B2B
:100DB00007D14FF48840C4F200004FF4807108F06E
:100DC00019F840F26403C2F200031B68032B0ED132
:100DD00040F20003C2F20003DB699BB2DBB29BB2BC
:100DE0004FF48840C4F20000194608F003F840F2BE
:100DF0006403C2F200031B68042B10D140F200030D
:100E0000C2F20003DB694FEA23239BB2DBB29BB241
:100E10004FF48840C4F20000194607F0EBFF40F29F
:100E20006403C2F200031B68052B0ED140F20003DD
:100E3000C2F20003DB699BB2DBB29BB24FF4884085
:100E4000C4F20000194607F0D5FF40F26403C2F275
:100E500000031B68062B10D140F20003C2F200030E
:100E6000DB694FEA23239BB2DBB29BB24FF488408D
:100E7000C4F20000194607F0BDFF40F26403C2F25D
:100E800000031B68072B21D14FF48840C4F20000F7
:100E90004FF0550107F0AEFF40F26C03C2F20003C1
:100EA0001B6803F1FF3240F26C03C2F200031A60C8
:100EB00040F26C03C2F200031B68002B06D140F223
:100EC0006C03C2F200034FF0FF021A6040F26403A9
:100ED000C2F200031B6803F1010240F26403C2F294
:100EE00000031A6040F26403C2F200031B68072B80
:100EF00006DD40F26403C2F200034FF000021A6004
:100F000080BD00BF80B500AF4FF4A050C4F2010017
:100F100040F2266107F0E6FF0346002B00F0E48074
:100F20004FF4A050C4F2010040F2266108F03CF8F2
:100F300040F26803C2F200031B68002B11D140F29B
:100F40007003C2F200031B689BB26FEA03039BB2FB
:100F5000DBB29BB24FF4A050C4F20100194607F077
:100F600049FF40F26803C2F200031B68012B11D154
:100F700040F27003C2F200031B689BB26FEA0303E6
:100F80009BB2DBB29BB24FF4A050C4F201001946F1
:100F900007F030FF40F26803C2F200031B68022B27
:100FA00007D14FF4A050C4F201004FF4807107F054
:100FB00021FF40F26803C2F200031B68032B0ED12D
:100FC00040F20003C2F200035B6B9BB2DBB29BB248
:100FD0004FF4A050C4F20100194607F00BFF40F295
:100FE0006803C2F200031B68042B10D140F2000317
:100FF000C2F200035B6B4FEA23239BB2DBB29BB2CE
:101000004FF4A050C4F20100194607F0F3FE40F27D
:101010006803C2F200031B68052B0ED140F20003E7
:10102000C2F200035B6B9BB2DBB29BB24FF4A050E9
:10103000C4F20100194607F0DDFE40F26803C2F277
:1010400000031B68062B10D140F20003C2F200031C
:101050005B6B4FEA23239BB2DBB29BB24FF4A050F1
:10106000C4F20100194607F0C5FE40F26803C2F25F
:1010700000031B68072B1DD14FF4A050C4F20100E0
:101080004FF0550107F0B6FE40F27003C2F20003C4
:101090001B685C2B07D140F27003C2F200034FF0D3
:1010A0005A021A6006E040F27003C2F200034FF0E9
:1010B0005C021A6040F26803C2F200031B6803F18D
:1010C000010240F26803C2F200031A6040F26803B2
:1010D000C2F200031B68072B06DD40F26803C2F270
:1010E00000034FF000021A6080BD00BF80B500AF62
:1010F00046F21040C4F2020044F21001C1F20001B5
:1011000006F08CFE0346002B09D046F21040C4F2D4
:10111000020044F21001C1F2000106F0DFFE46F2C7
:101120001040C4F2020048F22001C1F2000106F0B2
:1011300075FE0346002B09D046F21040C4F20200AF
:1011400048F22001C1F2000106F0C8FE80BD00BFD8
:1011500080B500AF4FF48050C4F200004FF00101A1
:1011600007F048FB0346002B00F082804FF48050CC
:10117000C4F200004FF0010107F06CFBFFF716FC12
:1011800040F6DC33C2F200031B881BB2C3F100033C
:10119000184608F047FB02460B461046194636A390
:1011A000D3E9002308F0A4FB02460B46104619467B
:1011B00033A3D3E9002308F09BFB02460B461046FD
:1011C000194631A3D3E9002308F0BCFC02460B46C4
:1011D000104619462EA3D3E9002308F0B3FC0246BB
:1011E0000B461046194608F045FE024640F2000341
:1011F000C2F200031A6140F6D033C2F200031B882A
:101200001BB2184608F00EFB02460B461046194664
:1012100019A3D3E9002308F06BFB02460B461046E6
:10122000194617A3D3E9002308F062FB02460B46D8
:101230001046194614A3D3E9002308F083FC0246A4
:101240000B461046194612A3D3E9002308F07AFC96
:1012500002460B461046194608F00CFE024640F2C4
:101260000003C2F200039A62FFF7A6F900F008F942
:1012700080BD00BFAFF3008052B81E85EB51C83F60
:10128000182D4454FB210940000000000022A64014
:101290009A9999999999993F80B500AF4FF4A050C8
:1012A000C4F200004FF0010107F0A4FA0346002B3E
:1012B00007D04FF4A050C4F200004FF0010107F036
:1012C000C9FA80BD80B500AF4FF080404FF00201F9
:1012D00007F090FA0346002B05D04FF080404FF006
:1012E000020107F0B7FA80BD80B582B000AF786028
:1012F00040F20003C2F200035B68012B5DD17B6802
:10130000D3ED007AF0EEE77A17EE900A08F09CFA37
:1013100002460B461046194630A3D3E9002308F0D5
:1013200077FD0346002B48D040F25C03C2F2000375
:101330004FF07C521A6040F26003C2F200034FF09B
:101340007C521A607B6893ED007ADFED237AC7EE5A
:10135000277A17EE900A08F077FA02460B461046F5
:10136000194619A3D3E9002308F0C2FA02460B4636
:101370001046194616A3D3E9002308F0B9FA02462D
:101380000B461046194608F075FD024640F2000370
:10139000C2F200031A6240F20003C2F20003D3ED6E
:1013A000087AF1EE677A40F20003C2F20003C3ED5F
:1013B0000E7A7B684FF000021A6007F10807BD46FD
:1013C00080BD00BFAFF30080182D4454FB210940BD
:1013D0005C8FC2F5285CE73F0000B4437B14AE4746
:1013E000E17A843FAFF3008080B582B000AF7860CF
:1013F00040F20003C2F200035B68012B37D17B6827
:10140000D3ED007AF0EEE77A17EE900A08F01CFAB6
:1014100002460B461046194617A3D3E9002308F0ED
:10142000F7FC0346002B22D040F25C03C2F200031B
:101430004FF07C521A6040F26003C2F200034FF09A
:101440007C521A607B681A6840F20003C2F2000303
:101450001A6240F20003C2F200031A6A40F200036B
:10146000C2F200039A637B684FF000021A6007F132
:101470000807BD4680BD00BFFCA9F1D24D62503FB8
:10148000B0B500AF40F20003C2F200035B68012B6D
:1014900040F0328440F20003C2F200035B6A184657
:1014A00008F0D2F904460D4640F6DC33C2F20003E0
:1014B0001B881BB2184608F0B5F902460B461046C9
:1014C00019460FF63C03D3E9002308F011FA02464F
:1014D0000B46104619460FF63003D3E9002308F0F7
:1014E00007FA02460B46104619460FF62403D3E9C5
:1014F000002308F027FB02460B462046294608F049
:1015000045F802460B461046194608F0B3FC024661
:1015100040F20003C2F200035A6240F20003C2F23A
:101520000003DB6B184608F08FF904460D4640F6C1
:10153000D033C2F200031B881BB2184608F072F9C0
:1015400002460B46104619460FF2B473D3E9002346
:1015500008F0CEF902460B46104619460FF2A87362
:10156000D3E9002308F0C4F902460B461046194699
:101570000FF29C73D3E9002308F0E4FA02460B460D
:101580002046294608F002F802460B461046194646
:1015900008F070FC024640F20003C2F20003DA6376
:1015A00040F20003C2F200031B6A184608F04CF92F
:1015B00004460D4640F6DC33C2F200031B881BB222
:1015C000184608F02FF902460B46104619460FF24E
:1015D0003073D3E9002308F08BF902460B4610461E
:1015E00019460FF22473D3E9002308F081F902466B
:1015F0000B46104619460FF21873D3E9002308F082
:10160000A1FA02460B462046294607F0BDFF0246D6
:101610000B461046194608F02DFC024640F2000326
:10162000C2F200031A6240F20003C2F200039B6B95
:10163000184608F009F904460D4640F6D033C2F2C8
:1016400000031B881BB2184608F0ECF802460B4654
:10165000104619460FF2A863D3E9002308F048F9B1
:1016600002460B46104619460FF29C63D3E900234D
:1016700008F03EF902460B46104619460FF29063F9
:10168000D3E9002308F05EFA02460B4620462946BD
:1016900007F07AFF02460B461046194608F0EAFBAF
:1016A000024640F20003C2F200039A6340F20003D4
:1016B000C2F20003D3ED097AF0EEE77A17EE900A52
:1016C00008F0C2F802460B46104619460FF248636E
:1016D000D3E9002308F088FB0346002B6BD040F2CF
:1016E0000003C2F20003D3ED087AF5EEC07AF1EE02
:1016F00010FAD4BF00230123DBB21A4640F20003E4
:10170000C2F20003D3ED087AF5EEC07AF1EE10FADA
:1017100054BF00230123DBB2D31A184608F082F825
:1017200004460D4640F20003C2F20003D3ED097AED
:10173000F0EEE77A17EE900A08F086F802460B46BC
:101740002046294608F0D4F802460B4610461946B2
:1017500007F01CFF02460B46104619460FF2C05315
:10176000D3E9002307F012FF02460B461046194644
:1017700008F080FB024640F6B833C2F200031A605C
:1017800040F6B833C2F2000393ED007A40F25C03F6
:10179000C2F20003D3ED007AB4EEE77AF1EE10FA6C
:1017A00009DD40F25C03C2F200031A6840F6B83368
:1017B000C2F200031A6040F20003C2F20003D3ED4C
:1017C0000F7AF0EEE77A17EE900A08F03DF802463D
:1017D0000B46104619460FF24053D3E9002308F098
:1017E00003FB0346002B4FD040F20003C2F200037C
:1017F000D3ED0E7AF5EEC07AF1EE10FAD4BF0023E5
:101800000123DBB21A4640F20003C2F20003D3ED1B
:101810000E7AF5EEC07AF1EE10FA54BF00230123E0
:10182000DBB2D31A184607F0FDFF04460D4640F21E
:101830000003C2F20003D3ED0F7AF0EEE77A17EE61
:10184000900A08F001F802460B462046294608F0A7
:101850004FF802460B46104619460FF2C443D3E92F
:10186000002307F093FE02460B461046194608F087
:1018700001FB034607EE103AF1EE477A40F6B83323
:10188000C2F20003C3ED017A40F6B833C2F200039E
:1018900093ED017A40F26003C2F20003D3ED007AC7
:1018A000B4EEE77AF1EE10FA09DD40F26003C2F21D
:1018B00000031A6840F6B833C2F200035A6040F2DF
:1018C0000003C2F20003D3ED087AF0EEE77A17EED8
:1018D000900A07F0B9FF02460B464FF001010C4693
:1018E000104619460FF24043D3E9002308F07CFA72
:1018F0000346002B02D14FF000031C46E5B240F234
:101900000003C2F20003D3ED087AF0EEE77A17EE97
:10191000900A07F099FF02460B464FF001010C4672
:10192000104619460FF20843D3E9002308F066FA7F
:101930000346002B02D14FF000031C46E3B22B40BC
:10194000DBB2002B49D040F20003C2F20003D3ED1A
:10195000087AF5EEC07AF1EE10FAD4BF0023012325
:10196000DBB21A4640F20003C2F20003D3ED087A5C
:10197000F5EEC07AF1EE10FA54BF00230123DBB27A
:10198000D31A184607F04EFF04460D4640F20003F6
:10199000C2F20003D3ED087AF0EEE77A17EE900A70
:1019A00007F052FF02460B462046294607F0A0FFEB
:1019B00002460B4610461946D9A3D3E9002307F087
:1019C000E5FD02460B461046194608F053FA02465A
:1019D00040F6B833C2F200031A6040F20003C2F2CC
:1019E00000039B6B184607F02FFF02460B464FF093
:1019F00001010C4610461946CBA3D3E9002308F099
:101A0000F3F90346002B02D14FF000031C46E5B268
:101A100040F20003C2F200039B6B184607F014FF6C
:101A200002460B464FF001010C4610461946C0A372
:101A3000D3E9002308F0E2F90346002B02D14FF06E
:101A400000031C46E3B22B40DBB2002B4ED040F229
:101A50000003C2F20003D3ED0E7AF5EEC07AF1EE88
:101A600010FAD4BF00230123DBB21A4640F2000370
:101A7000C2F20003D3ED0E7AF5EEC07AF1EE10FA61
:101A800054BF00230123DBB2D31A184607F0CAFE65
:101A900004460D4640F20003C2F20003D3ED0E7A75
:101AA000F0EEE77A17EE900A07F0CEFE02460B46FC
:101AB0002046294607F01CFF02460B4610461946F1
:101AC00097A3D3E9002307F061FD02460B461046B9
:101AD000194608F0CFF9034607EE103AF1EE477ABF
:101AE00040F6B833C2F20003C3ED017A40F20003BE
:101AF000C2F20003D3ED0E7AF0EEE77A17EE900A09
:101B000007F0A2FE02460B461046194688A3D3E909
:101B1000002308F069F90346002B06D040F6B833DD
:101B2000C2F200034FF000025A6040F20003C2F21A
:101B30000003D3ED0E7AF0EEE77A17EE900A07F085
:101B400083FE02460B461046194679A3D3E90023CB
:101B500008F04AF90346002B06D040F6B833C2F22B
:101B600000034FF000025A6040F6B833C2F200039F
:101B700093ED017A40F26003C2F20003D3ED007AE4
:101B8000B4EEE77AF1EE10FA09DD40F26003C2F23A
:101B900000031A6840F6B833C2F200035A6040F6F8
:101BA000B833C2F2000393ED007A40F25C03C2F254
:101BB0000003D3ED007AB4EEE77AF1EE10FA09DD16
:101BC00040F25C03C2F200031A6840F6B833C2F276
:101BD00000031A6040F20003C2F20003D3ED087A5A
:101BE000F0EEE77A17EE900A07F02EFE02460B465B
:101BF0004FF001010C46104619464DA3D3E90023CE
:101C000008F0F2F80346002B02D14FF000031C4607
:101C1000E5B240F20003C2F20003D3ED0E7AF0EE1B
:101C2000E77A17EE900A07F00FFE02460B464FF0D8
:101C300001010C46104619463DA3D3E9002308F0E4
:101C4000D3F80346002B02D14FF000031C46E3B249
:101C50002B40DBB2002B06D040F20003C2F200039F
:101C60004FF001029A6540F20003C2F20003D3ED87
:101C7000087AF0EEE77A17EE900A07F0E5FD0246E3
:101C80000B464FF001010C461046194628A3D3E934
:101C9000002308F0BDF80346002B02D14FF00003EB
:101CA0001C46E5B240F20003C2F20003D3ED0E7A07
:101CB000F0EEE77A17EE900A07F0C6FD02460B46F3
:101CC0004FF001010C461046194619A3D3E9002331
:101CD00008F09EF80346002B02D14FF000031C468B
:101CE000E3B22B43DBB2002B06D040F20003C2F27A
:101CF00000034FF000029A65B0BD00BFAFF3008053
:101D000052B81E85EB51C83F182D4454FB210940A1
:101D1000000000000022A6409A9999999999C93F1C
:101D20009A9999999999B93F9A9999999999D93F75
:101D30009A9999999999A93F80B584B000AF4FF4C9
:101D40005273BB804FF00003FB8040F6C413BB60AE
:101D50004FF00003BB814FF00003BB7307F1040396
:101D60004FF48050C4F20000194606F095FB4FF482
:101D70008050C4F200004FF0000106F007FC4FF461
:101D80008050C4F200004FF0010106F027FC4FF430
:101D90008050C4F200004FF001014FF0010206F044
:101DA00005FD4FF036033B704FF004037B704FF09E
:101DB0000103BB704FF00103FB703B46184605F072
:101DC00049FC07F11007BD4680BD00BF80B584B057
:101DD00000AF4FF05403BB804FF00003FB804FF483
:101DE000FA63BB604FF00003BB814FF00003BB738D
:101DF00007F104034FF4A050C4F20000194606F0A6
:101E00004BFB4FF4A050C4F200004FF0000106F06D
:101E1000BDFB4FF4A050C4F200004FF0010106F0EA
:101E2000DDFB4FF4A050C4F200004FF001014FF071
:101E3000010206F0BBFC4FF037033B704FF0040388
:101E40007B704FF00103BB704FF00103FB703B460A
:101E5000184605F0FFFB07F11007BD4680BD00BF27
:101E600080B483B000AF0346FB714FF46143CEF200
:101E7000000397F907204FEA5212F97901F01F0188
:101E80004FF0010000FA01F143F8221007F10C07AE
:101E9000BD4680BC704700BF80B58AB000AF786097
:101EA0004FF400304FF0010106F0A2FA4FF00800A5
:101EB0004FF0010106F01EFA4FF060033B624FF055
:101EC000020387F824304FF0030387F825304FF0E2
:101ED000000387F826304FF0010387F8273007F119
:101EE00020034FF44060C4F20200194606F026F8C1
:101EF0004FF44060C4F202004FF005014FF00702BA
:101F000006F0BEF84FF44060C4F202004FF0060144
:101F10004FF0070206F0B4F87B683B614FF4805342
:101F2000BB824FF48053FB824FF000033B834FF0A2
:101F30000003BB834FF00C037B8307F110034FF4C6
:101F40008840C4F20000194606F05EFE4FF4884057
:101F5000C4F2000040F226614FF0010206F070FF6B
:101F60004FF48840C4F2000040F225514FF00102C6
:101F700006F066FF4FF026033B734FF000037B73C0
:101F80004FF00003BB734FF00103FB7307F10C0329
:101F9000184605F05FFB4FF48840C4F200004FF094
:101FA000010106F007FF07F12807BD4680BD00BF0D
:101FB00080B58AB000AF78604FF020004FF001018B
:101FC00006F016FA4FF004004FF0010106F092F906
:101FD0004FF0C0033B624FF0020387F824304FF00C
:101FE000030387F825304FF0000387F826304FF0C1
:101FF000010387F8273007F120034FF40060C4F293
:102000000200194605F09AFF4FF40060C4F2020086
:102010004FF006014FF0080206F032F84FF400606E
:10202000C4F202004FF007014FF0080206F028F852
:102030007B683B614FF48053BB824FF48053FB823B
:102040004FF000033B834FF00003BB834FF00C03C2
:102050007B8307F110034FF4A050C4F2010019462E
:1020600006F0D2FD4FF4A050C4F2010040F2266108
:102070004FF0010206F0E4FE4FF4A050C4F201005C
:1020800040F225514FF0010206F0DAFE4FF047030F
:102090003B734FF000037B734FF00003BB734FF0B3
:1020A0000103FB7307F10C03184605F0D3FA4FF454
:1020B000A050C4F201004FF0010106F07BFE07F1D1
:1020C0002807BD4680BD00BF80B485B000AF7860F2
:1020D0000B46FB704FF44053C4F202034FF0010271
:1020E0009A604FF00003FB730CE04FF44053C4F2CE
:1020F0000203FA7B79688A1812781A60FB7B03F175
:102100000103FB73FA7BFB789A42EED34FF4405302
:10211000C4F202031B68184607F11407BD4680BCD1
:10212000704700BF80B400AF4FF4C043C4F2020355
:102130004FF40062DA60BD4680BC704780B582B063
:1021400000AF7860396046F2B843C4F2020346F249
:10215000B842C4F20202126822F001021A6046F28A
:10216000B843C4F2020346F2B842C4F20202126853
:1021700042F000621A6046F2B843C4F2020341F230
:102180000402C4F201029A6046F2B843C4F20203A8
:102190007A68DA6046F2B843C4F2020346F2B84203
:1021A000C4F20202126822F0C0021A6046F2B8437A
:1021B000C4F2020346F2B842C4F20202126842F0CC
:1021C00040021A6046F2B843C4F202033A685A6009
:1021D00046F2B843C4F2020346F2B842C4F2020225
:1021E000126822F400721A6046F2B843C4F2020385
:1021F00046F2B842C4F20202126842F480621A60E7
:1022000046F2B843C4F2020346F2B842C4F20202F4
:10221000126842F440321A6046F2B843C4F2020334
:1022200046F2B842C4F20202126842F010021A608A
:102230004FF48053C4F201034FF48052C4F2010200
:10224000128892B222F0400292B21A804FF4C84330
:10225000C4F202034FF000629A6046F2B843C4F23F
:10226000020346F2B842C4F20202126842F00102CE
:102270001A604FF04600FFF7F3FD07F10807BD466F
:1022800080BD00BF80B582B000AF7860396046F293
:102290004043C4F2020346F24042C4F20202126812
:1022A00022F001021A6046F24043C4F2020346F2F1
:1022B0004042C4F20202126842F000621A6046F222
:1022C0004043C4F2020341F20402C4F201029A60E4
:1022D00046F24043C4F202037A68DA6046F24043B1
:1022E000C4F2020346F24042C4F20202126822F033
:1022F000C0021A6046F24043C4F202033A685A60D0
:1023000046F24043C4F2020346F24042C4F20202E3
:10231000126822F400721A6046F24043C4F20203CB
:1023200046F24042C4F20202126842F480621A602D
:1023300046F24043C4F2020346F24042C4F20202B3
:10234000126842F440321A6046F24043C4F202037B
:1023500046F24042C4F20202126842F010021A60D1
:102360004FF4C843C4F202034FF400629A6046F28D
:102370004043C4F2020346F24042C4F20202126831
:1023800042F001021A604FF03A00FFF769FD07F1D1
:102390000807BD4680BD00BF80B582B000AF4FF0DA
:1023A00000037B6040F27403C2F200034FF00002AE
:1023B0001A724FF4C043C4F202031B6803F00063B7
:1023C000002B00F06F8146F25803C4F2020346F27C
:1023D0005802C4F20202126822F001021A604FF49D
:1023E000C043C4F202034FF4C042C4F20202926836
:1023F00042F040629A6040F27403C2F200031A6A2B
:1024000040F27403C2F200035B689A420EDD40F2B0
:102410007403C2F200031A6A40F27403C2F20003AA
:102420005B68D31A03F1FF337B600FE040F2740363
:10243000C2F200031B6A03F1C70240F27403C2F246
:1024400000035B68D31A03F1FF337B607B68002BCA
:1024500040F3208140F27403C2F200031A6A40F292
:102460007403C2F200035B689A4274DD40F27403A5
:10247000C2F200035B68C72B06D140F27403C2F2BC
:1024800000034FF0FF325A6040F27403C2F20003BF
:102490005B6803F1010240F27403C2F200031A60A8
:1024A00040F27403C2F200031B6A03F1FF3240F2F0
:1024B0007403C2F200035A6040F27403C2F20003D4
:1024C0005A6840F27403C2F200031B68D31A03F186
:1024D000010240F27403C2F200039A6140F27403F5
:1024E000C2F200031B681A4640F66843C2F20003BA
:1024F000D21840F27403C2F20003DA6140F27403AE
:10250000C2F200034FF001021A7240F27403C2F2E9
:102510000003DA6940F27403C2F200039B691046BB
:102520001946FFF70BFE40F27403C2F200034FF0AE
:1025300003025A7240F27403C2F200035A6940F275
:102540007403C2F200039B69D21840F27403C2F212
:1025500000035A61AEE040F27403C2F200035B680C
:10256000C72B35D140F27403C2F200034FF00002D2
:102570001A6040F27403C2F200031B6A03F1FF32D7
:1025800040F27403C2F200035A6040F27403C2F2D4
:1025900000035A6840F27403C2F200031B68D31AA6
:1025A00003F1010240F27403C2F200039A6140F2A7
:1025B0007403C2F200031B681A4640F66843C2F275
:1025C0000003D21840F27403C2F20003DA6134E06F
:1025D00040F27403C2F200035B6803F1010240F2AF
:1025E0007403C2F200031A6040F27403C2F20003E3
:1025F0004FF0C7025A6040F27403C2F200035A68F7
:1026000040F27403C2F200031B68D31A03F1010203
:1026100040F27403C2F200039A6140F27403C2F202
:1026200000031B681A4640F66843C2F20003D21842
:1026300040F27403C2F20003DA6140F27403C2F2A2
:1026400000034FF001021A7240F27403C2F2000359
:102650005A6940F27403C2F200039B69D21840F237
:102660007403C2F200035A6140F27403C2F2000321
:10267000DA6940F27403C2F200039B6910461946FE
:10268000FFF75CFD40F27403C2F200034FF0040256
:102690005A720FE040F27403C2F200034FF00002DE
:1026A0001A7207E040F27403C2F200034FF0000216
:1026B0001A7200BF07F10807BD4680BD80B582B021
:1026C00000AF46F24043C4F2020346F24042C4F275
:1026D0000202126822F001021A604FF4C843C4F2E9
:1026E00002034FF4C842C4F20202926842F400624C
:1026F0009A604FF48053C4F201034FF48052C4F245
:102700000102928992B242F0200292B29A8140F282
:102710009800C2F200004FF01A01FFF7D5FC034603
:10272000FB8040F29803C2F200035B8BFA889A4266
:102730004DD140F29803C2F20003D3F80E201346A5
:102740001A4640F6D423C2F200031A6040F29803FE
:10275000C2F20003D3F8122013461A4640F6D423DF
:10276000C2F200035A6040F29803C2F20003D3F8A9
:10277000162013461A4640F6D423C2F200039A608C
:1027800040F29803C2F20003D3F8062013461A461B
:1027900040F6E023C2F200031A6040F29803C2F24E
:1027A0000003D3F8022013461A4640F6E023C2F293
:1027B00000035A6040F29803C2F20003D3F80A20E3
:1027C00013461A4640F6E023C2F200039A6007F16E
:1027D0000807BD4680BD00BF80B582B000AF4FF492
:1027E0008053C4F201031B889BB2FB714FF48053EA
:1027F000C4F201034FF000021A80FB7903F02003BA
:10280000002B04D1FB7903F00803002B7ED04FF49A
:102810008053C4F201039B889BB2DAB240F6604356
:10282000C2F200035A7040F66043C2F200035B78C4
:10283000184603F04FFF4FF48053C4F201031B8886
:102840009BB2FB71FB7903F00803002B1AD04FF405
:102850008053C4F201039B889BB2DAB240F6604316
:10286000C2F200035A7040F66043C2F200035B7884
:10287000184603F02FFF4FF48053C4F201031B8866
:102880009BB2FB7140F66043C2F200031B78AA2B97
:1028900032D140F66043C2F200035B78012B2BD1AA
:1028A00040F66043C2F200035A7840F29803C2F245
:1028B00000035A7017484FF01B01FFF7E3FC4FF479
:1028C0008053C4F201034FF48052C4F20102928992
:1028D00092B222F0200292B29A814FF48053C4F255
:1028E00001034FF48052C4F20102928A92B242F084
:1028F000400292B29A8209E040F66043C2F20003BD
:102900005A7840F66043C2F200031A7007F10807D4
:10291000BD4680BD9900002080B584B000AF7860CE
:102920000B46FB7078684FF081014FF040024FF08A
:10293000020301F0D5FD78684FF001014FF040022D
:102940004FF0020301F0CCFD78684FF082014FF0A8
:1029500008024FF0030301F0C3FD40F29C13C2F2E2
:102960000003FB60FB6803F104034FF002021A70DE
:10297000FB6803F105034FF000021A7040F26C137C
:10298000C2F200031B68984778684FF0010140F6D7
:102990007452C2F200024FF0400301F03FFE4FF0CC
:1029A0000003184607F11007BD4680BD80B582B010
:1029B00000AF78600B46FB7078684FF0810101F042
:1029C000E9FD78684FF0010101F0E4FD78684FF00F
:1029D000820101F0DFFD40F26C13C2F200035B687C
:1029E00098474FF00003184607F10807BD4680BD21
:1029F00080B582B000AF786039603B681B7803F027
:102A00006003002B58D0202B4FD13B68DB88002B74
:102A10003BD03B681B78DBB25BB2002B1ADA40F28A
:102A20006C13C2F200039B683A68527811463A6808
:102A3000D288084640F6B451C2F2000198473B687C
:102A4000DB88786840F6B451C2F200011A4603F000
:102A500073F827E03B685B781A4640F2F803C2F24D
:102A600000031A603B68DB881A4640F6B823C2F2BE
:102A700000031A603B68DB88786840F6B451C2F204
:102A800000011A4603F094F80CE040F26C13C2F215
:102A900000039B683A68527810464FF000014FF0EF
:102AA000000298474FF0000335E07868396803F07A
:102AB00091FD4FF002032EE03B685B780A2B0AD0B1
:102AC0000B2B12D0062B24D17868396803F082FDD5
:102AD0004FF002031FE0786840F6A421C2F2000123
:102AE0004FF0010203F028F813E03B685B88DBB28B
:102AF000002B09D13B685B88DBB21A4640F6A42361
:102B0000C2F200031A6003E07868396803F062FDDE
:102B100000BF4FF00003184607F10807BD4680BD0F
:102B200090B583B000AF786040F2F803C2F20003C2
:102B30001B68FF2B1CD040F26C13C2F200039C6890
:102B400040F2F803C2F200031A6840F6B823C2F25A
:102B500000031B68104640F6B451C2F200011A4649
:102B6000A04740F2F803C2F200034FF0FF021A60E0
:102B70004FF00003184607F10C07BD4690BD00BF9B
:102B800080B584B000AF78600B46FB7040F6B4238C
:102B9000C2F200031B78012B73D140F6B023C2F2BE
:102BA00000031B68002B07D140F6B423C2F20003D8
:102BB0004FF000021A7064E040F6B023C2F2000346
:102BC0001B68402B21D940F6AC23C2F200031B68DE
:102BD000FB814FF04003BB8140F6AC23C2F20003FF
:102BE0001B6803F1400240F6AC23C2F200031A60F6
:102BF00040F6B023C2F200031B68A3F1400240F686
:102C0000B023C2F200031A602CE040F6AC23C2F2FB
:102C100000031B68FB8140F6B023C2F200031B686F
:102C2000BB8140F6AC23C2F200031A6840F6B02321
:102C3000C2F200031B68D21840F6AC23C2F20003B4
:102C40001A6040F6B023C2F200034FF000021A608F
:102C5000BB89402B06D140F6B423C2F200034FF0EB
:102C600002021A70FA8940F6BC53C2F20003D2186D
:102C7000BB8978684FF0810101F018FD4FF0000327
:102C800018E040F6B423C2F200031B78022B0FD1E8
:102C900078684FF081014FF000024FF0000301F01F
:102CA00005FD40F6B423C2F200034FF000021A7093
:102CB0004FF00003184607F11007BD4680BD00BF66
:102CC00080B584B000AF78600B46FB70FA78796805
:102CD00013464FEA83039B184FEAC303CB1803F54F
:102CE00063731B68FB8140F26C13C2F200031B6923
:102CF000FA8940F67450C2F200001146984778688D
:102D00004FF0010140F67452C2F200024FF040034E
:102D100001F084FC4FF00003184607F11007BD4690
:102D200080BD00BF80B582B000AF786040F6BC23A4
:102D3000C2F200031B68052B14BF00220122D2B28D
:102D400003F1010140F6BC23C2F200031960002A1E
:102D500009D040F6BC23C2F200034FF000021A6013
:102D6000786800F007F84FF00003184607F10807ED
:102D7000BD4680BD80B584B000AF786040F6B42316
:102D8000C2F200031B78002B40F0BD8040F6AC235C
:102D9000C2F200031B68B3F5006F06D140F6AC2306
:102DA000C2F200034FF000021A6040F6AC23C2F2F8
:102DB00000031A6840F6A823C2F200031B689A4277
:102DC00007D140F6B423C2F200034FF000021A709C
:102DD00099E040F6AC23C2F200031A6840F6A8233B
:102DE000C2F200031B689A420CD940F6AC23C2F22F
:102DF00000031B68C3F5006240F6B023C2F2000373
:102E00001A600FE040F6A823C2F200031A6840F6E9
:102E1000AC23C2F200031B68D21A40F6B023C2F200
:102E200000031A6040F6B023C2F200031B68402B77
:102E300028D940F6AC23C2F200031B68FB814FF097
:102E40004003BB8140F6AC23C2F200031B6803F1D0
:102E5000400240F6AC23C2F200031A6040F6B023F1
:102E6000C2F200031B68A3F1400240F6B023C2F295
:102E700000031A6040F6B423C2F200034FF00102CF
:102E80001A7034E040F6AC23C2F200031B68FB81E9
:102E900040F6B023C2F200031B68BB8140F6AC23AE
:102EA000C2F200031A6840F6B023C2F200031B68A6
:102EB000D21840F6AC23C2F200031A6040F6B023E9
:102EC000C2F200034FF000021A60BB89402B07D109
:102ED00040F6B423C2F200034FF002021A7006E07B
:102EE00040F6B423C2F200034FF001021A70FA89CF
:102EF00040F6BC53C2F20003D218BB8978684FF089
:102F0000810101F0D3FB07F11007BD4680BD00BF72
:102F100080B483B000AF03463960FB713B684FF06B
:102F200043021A8040F2B403C2F20003184607F1CC
:102F30000C07BD4680BC704780B485B000AF786098
:102F40004FF00003FB607B68DB684FF0FF325A6094
:102F50007B68DB686FF080425A61FB6843F0004396
:102F6000FB60FB6843F40063FB607B68DB68FA6826
:102F70009A6107F11407BD4680BC704780B586B0E2
:102F800000AF78604FF00003FB744FF000037B61EB
:102F90004FF00003FB604FF0030003F0CBFF7B68B2
:102FA000DB681B69FB607B6903F101037B617A6964
:102FB0004FF45463C0F203039A4202D94FF0000366
:102FC0002AE0FB6803F00043002BE4D04FF000033D
:102FD0007B61FB6843F00103FB607B68DB68FA6898
:102FE0001A617B68DB681B69FB607B6903F1010385
:102FF0007B617A694FF45463C0F203039A4205D8A7
:10300000FB6803F00103002BEBD100E000BF4FF0A1
:10301000030003F08FFFFB7C184607F11807BD463D
:1030200080BD00BF80B489B000AFF860B960FA71AC
:10303000BB804FF00003FB76FB68DB78002B2DD1C3
:103040004FF000037B614FF00003FB61BB8803F18D
:10305000030303F10302002BB8BF13464FEAA30397
:103060007B61FB79FA6803F132034FEA8303D318DB
:103070009B683B614FF00003FB610BE0BB681A6883
:103080003B691A60BB6803F10403BB60FB6903F191
:103090000103FB61FA697B699A42EFD3FB7E184614
:1030A00007F12407BD4680BC704700BF80B489B0DB
:1030B00000AFF860B9601346FB804FF00003FB617E
:1030C000FB8803F1030303F10302002BB8BF13468F
:1030D0004FEAA303BB61FB68D3F8D0307B614FF0AC
:1030E0000003FB610BE07B691A68BB681A60BB6870
:1030F00003F10403BB60FB6903F10103FB61FA699F
:10310000BB699A42EFD3BB68184607F12407BD4656
:1031100080BC704780B487B000AF78600B46FB700E
:103120004FF000033B614FF00003FB737B684FF0EF
:103130000002DA707B684FF001029A707B684FF0F2
:1031400040029A80FB78012B17D14FF0A0433B61DE
:103150007B684FF00102DA727B684FF008021A7048
:103160007B684FF004025A707B684FF4A072DA80DB
:103170007B684FF002021A7217E0FB78002B14D123
:103180004FF00003C4F204033B617B684FF0000280
:10319000DA727B684FF00C021A707B684FF00602FF
:1031A0005A707B684FF4A062DA803A697B68DA6013
:1031B0003B6903F500631A467B681A614FF0000310
:1031C0007B6123E07B694FEA43123B69D31803F527
:1031D00010631A4679687B6903F104034FEA83039D
:1031E000CB189A607B694FEA43123B69D31803F509
:1031F00030631A4679687B6903F114034FEA83034D
:10320000CB185A607B6903F101037B617B685B78B3
:103210001A467B699A42D5D83B6903F580631A4602
:103220007B685A613B6903F588631A467B68C3F87B
:10323000CC204FF000037B6113E07B694FEA43121F
:103240003B69D31803F5A0631A4679687B6903F1DB
:1032500022034FEA8303CB189A607B6903F10103D1
:103260007B617B681B781A467B699A42E5D84FF0F0
:1032700000037B6113E07B694FEA03323B69D3189B
:1032800003F580531A4679687B6903F132034FEAEC
:103290008303CB189A607B6903F101037B617B6830
:1032A0001B781A467B699A42E5D83B6903F560634F
:1032B0001A467B68C3F80C21FB7B184607F11C07F4
:1032C000BD4680BC704700BF80B586B000AF786057
:1032D0004FF00003FB754FF000033B614FF000031C
:1032E000FB604FF00003BB607B681B7A012B44D16D
:1032F0007B68DB689B6BFB60FB686FF31043FB60D4
:103300007B685B7A002B03D0FB6843F48013FB607F
:103310007B68DB68FA689A634FF000033B617B6867
:10332000DB68DB683B613B696FF386133B613B699C
:103330006FF396533B613B696FF351433B613B69CC
:103340006FF3D3433B617B68DB683A69DA60786886
:10335000FFF714FE7B68DB78012B3CD1BB684FF094
:10336000050262F34403BB60BB6843F02003BB600B
:103370007B68DB68BA689A602DE07B68DB68DB6895
:103380003B613B6943F040033B617B68DB683A6922
:10339000DA607868FFF7F2FD4FF00003FB60FB682E
:1033A00043F48033FB60FB6843F48023FB60FB68DD
:1033B00043F40023FB607B685B7A002B03D0FB683F
:1033C00043F48013FB607B68DB68FA689A634FF014
:1033D000140003F0DBFD7B68DB78012B11D17B68E7
:1033E000DB689B68BB60BB684FF0050262F3440377
:1033F000BB60BB6843F02003BB607B68DB68BA68D6
:103400009A60FB7D184607F11807BD4680BD00BFD6
:1034100080B485B000AF78604FF00003FB734FF0CD
:103420000003BB60BB6843F00103BB607B68DB68E3
:103430007A68D2689168BA680A439A60FB7B18463A
:1034400007F11407BD4680BC704700BF80B485B04B
:1034500000AF78604FF00003FB734FF00003BB60D8
:10346000BB6843F00103BB607B68DB687A68D268A5
:103470009168BA686FEA02020A409A60FB7B1846BC
:1034800007F11407BD4680BC704700BF80B586B009
:1034900000AF786039604FF00003FB744FF0000319
:1034A0007B614FF00003FB60FB6843F02003FB608F
:1034B0003B68DBB203F01F03DAB2FB6862F38A13E6
:1034C000FB607B68DB68FA681A617B68DB681B69F4
:1034D000FB607B6903F101037B617A694FF45463FC
:1034E000C0F203039A4205D8FB6803F02003002BC7
:1034F000EBD100E000BF4FF0030003F01BFDFB7CAD
:10350000184607F11807BD4680BD00BF80B586B0DC
:1035100000AF78604FF00003FB744FF000037B6155
:103520004FF00003FB60FB6843F01003FB607B6817
:10353000DB68FA681A617B68DB681B69FB607B6982
:1035400003F101037B617A694FF45463C0F2030312
:103550009A4205D8FB6803F01003002BEBD100E082
:1035600000BF4FF0030003F0E5FCFB7C184607F1B9
:103570001807BD4680BD00BF80B584B000AF78603D
:103580000B46FB704FF00003FB737B68DB68DB6866
:10359000BB60BB686FF35D73BB60BB686FF39E730A
:1035A000BB60FB78012B04D1BB6843F00053BB60C8
:1035B00006E0FB78002B03D1BB6843F08043BB607F
:1035C0007B68DB68BA68DA604FF0320003F0DEFC3B
:1035D000FB7B184607F11007BD4680BD80B483B061
:1035E00000AF78607B68DB685B6903F00103184615
:1035F00007F10C07BD4680BC704700BF80B582B0A4
:1036000000AF78607868FFF7E9FF0346012B0CBF35
:1036100000230123DBB2184607F10807BD4680BD31
:1036200080B485B000AF78604FF00003FB607B682A
:10363000DB685B69FB607B68DB689B69FA68134049
:10364000FB60FB68184607F11407BD4680BC704755
:1036500080B485B000AF78600B46FB707B681B6957
:103660001B68FB60FB7803F00303DAB2FB6862F3CC
:103670000103FB607B681B69FA681A6007F1140795
:10368000BD4680BC704700BF80B58CB000AF78608D
:103690004FF0000387F82B304FF000037B624FF0B0
:1036A00000033B624FF00003FB614FF00003BB617E
:1036B0004FF000037B617B68D3F80C314FF00002C0
:1036C0001A607B681B691B683B623B6A6FF3CC2303
:1036D0003B627B681B693A6A1A607B68DB7A012B64
:1036E00047D178684FF00301FFF7B2FF7B68DB68D2
:1036F0004FF080025A62FB694FF0200262F31F43D1
:10370000FB61FB694FF0800262F30F03FB617B6892
:10371000DB68FA699A62BA8BFB8BD3189BB23B8346
:10372000BB694FF0800262F31F43BB617B68DB68BB
:10373000BA69C3F804213A8B7B8BD3189BB23B83C5
:10374000BB694FF0200262F31F43BB617B68DB68FB
:10375000BA69C3F808213A8B7B8BD3189BB23B83A1
:10376000BB696FF31F43BB617B68DB68BA69C3F851
:103770000C2178684FF01001FFF788FE7868FFF79A
:10378000C5FE7B681B694FF000021A617B681B69EC
:103790004FF000025A617B681B694FF0FF329A615B
:1037A0007B681B694FF00002DA614FF00003FB6297
:1037B00043E07A68FB6A03F104034FEA8303D318FA
:1037C0009B681B687B6297F8273023F07F03DBB28E
:1037D000002B0BD04FF000037B627B6A43F08043E9
:1037E0007B627B6A43F000637B6202E04FF0000380
:1037F0007B627A68FB6A03F104034FEA8303D31800
:103800009B687A6A1A607A68FB6A03F104034FEADC
:103810008303D3189B684FF000021A617A68FB6A31
:1038200003F104034FEA8303D3189B684FF0FF02B0
:103830009A60FB6A03F10103FB627B685B781A46BE
:10384000FB6A9A42B5D84FF00003FB6242E07A6807
:10385000FB6A03F114034FEA8303D3185B681B6808
:10386000FB60FB7B23F07F03DBB2002B0BD04FF020
:103870000003FB60FB6843F08043FB60FB6843F0A0
:103880000063FB6002E04FF00003FB607A68FB6AB4
:1038900003F114034FEA8303D3185B68FA681A60D4
:1038A0007A68FB6A03F114034FEA8303D3185B6859
:1038B0004FF000021A617A68FB6A03F114034FEAC1
:1038C0008303D3185B684FF0FF029A60FB6A03F131
:1038D0000103FB627B685B781A46FB6A9A42B6D8A2
:1038E0004FF000037B617B6943F480737B617B68ED
:1038F0001B697A68126911697A696FEA02021140DC
:103900007A690A431A617B68DB78012B1ED14FF07C
:1039100000033B613B6943F001033B613B6943F0BA
:1039200002033B613B694FF0400262F38A033B6153
:103930003B6943F480333B613B694FF0400262F3E3
:1039400059433B617B681B693A691A63786800F0E8
:1039500007F897F82B30184607F13007BD4680BDB1
:1039600080B584B000AF78604FF00003FB734FF078
:103970000003BB607B68DB684FF000029A617B68E4
:10398000DB686FF080425A617868FFF7D5FA7B6890
:10399000DB78002B03D1BB6843F01003BB60BB682E
:1039A00043F40063BB60BB6843F48053BB60BB68F7
:1039B00043F40053BB60BB6843F48023BB60BB6827
:1039C00043F40023BB60BB6843F00803BB60BB68E3
:1039D00043F48013BB60BB6843F40013BB60BB6857
:1039E00043F08043BB60BB6843F00403BB607B686B
:1039F000DB687A68D2689169BA686FEA020211409E
:103A0000BA680A439A61FB7B184607F11007BD4666
:103A100080BD00BF80B485B000AF78604FF0000378
:103A2000FB737B681B699B68BB60BB68C3F3410386
:103A3000DBB2032B16D801A252F823F04D3A00084E
:103A4000553A00085D3A0008553A00084FF0030364
:103A5000FB730BE04FF00203FB7307E04FF0010331
:103A6000FB7303E04FF00203FB7300BFFB7B1846C0
:103A700007F11407BD4680BC704700BF80B487B013
:103A800000AF78604FF00003FB754FF00003BB60A0
:103A90007B681B699B683B617B689B691B68FB605B
:103AA0003B69C3F34103DBB2032B17D801A252F8E1
:103AB00023F000BFC53A0008C53A0008CF3A000815
:103AC000C53A0008FB686FF30A03FB600BE0FB6874
:103AD0004FF0030262F30A03FB6004E0FB686FF33C
:103AE0000A03FB6000BF7B689B69FA681A60BB68C9
:103AF00043F48073BB607B681B697A681269516804
:103B0000BA686FEA02021140BA680A435A60FB7D44
:103B1000184607F11C07BD4680BC704780B487B0CB
:103B200000AF786039604FF00003FB744FF0000382
:103B3000FB604FF00003BB603B685B78012B12D148
:103B40003B681B787A6803F104034FEA8303D318B8
:103B50009B687B613B681B784FF0010202FA03F31C
:103B60009BB23B8114E03B681B787A6803F1140335
:103B70004FEA8303D3185B687B613B681B784FF087
:103B8000010202FA03F39AB2BB6862F31F43BB60FF
:103B90007B691B68FB607B7B23F07F03DBB2002B20
:103BA00029D13B689B689BB24FEA43534FEA53537A
:103BB0009AB2FB6862F30A03FB603B68DB7803F0B0
:103BC0000303DAB2FB6862F39343FB603B68DB8874
:103BD000DBB203F00F03DAB2FB6862F39953FB60C8
:103BE000FB6843F08053FB60FB6843F40043FB60D9
:103BF000FA687B691A607B681B697A681269D16907
:103C0000BA680A43DA61FB7C184607F11C07BD4617
:103C100080BC704780B487B000AF786039604FF0E7
:103C20000003FB744FF00003FB604FF00003BB6028
:103C30003B685B78012B12D13B681B787A6803F1F3
:103C400004034FEA8303D3189B687B613B681B78AE
:103C50004FF0010202FA03F39BB23B8114E03B6890
:103C60001B787A6803F114034FEA8303D3185B6867
:103C70007B613B681B784FF0010202FA03F39AB2B2
:103C8000BB6862F31F43BB60FB686FF3CF33FB601D
:103C9000FA687B691A607B681B697A681269D16966
:103CA000BA686FEA02020A40DA61FB7C184607F143
:103CB0001C07BD4680BC704780B588B000AF7860F7
:103CC00039604FF00003FB774FF00003BB614FF00A
:103CD00000037B614FF000033B613B685B78012B85
:103CE00040F0BD803B681B787A6803F104034FEA1B
:103CF0008303D3189B681B687B613B681B787A68D9
:103D000003F104034FEA8303D3189B681B693B61EB
:103D10003B685B69002B0AD13B696FF312033B617F
:103D20003B694FF0010262F3DC433B6128E03B68F2
:103D30005B6923F07F4222F478023B6962F312034D
:103D40003B613B685A693B689B68D31803F1FF32BB
:103D50003B689B68B2FBF3F39BB24FEA83534FEA95
:103D600093539AB23B6962F3DC433B613B68DB7877
:103D7000012B05D13B694FF0010262F35E733B6199
:103D80003B681B787A6803F104034FEA8303D31876
:103D90009B683A691A617B68DB78012B0CD13B6820
:103DA0001B787A6803F104034FEA8303D3189B68F6
:103DB0003A6812695A6116E03B68DB78012B12D031
:103DC0003B685B69002B0ED03B681B784FF001020B
:103DD00002FA03F3BB617B681B697A681269516B55
:103DE000BA690A435A633B68DB78012B14D17B68BC
:103DF0001B699B68FB60FB68C3F30D239BB203F058
:103E00000103002B04D17B6943F000537B6103E085
:103E10007B6943F080537B617B6943F080637B6106
:103E20007B6943F000437B613B681B787A6803F150
:103E300004034FEA8303D3189B687A691A603B68CE
:103E4000DB78012B40F0A0803B68D9683B681A788A
:103E50003B685B699BB27868FFF7E4F894E03B68E5
:103E60001B787A6803F114034FEA8303D3185B6865
:103E70001B687B613B681B787A6803F114034FEA87
:103E80008303D3185B681B693B613B685B69002B4C
:103E900010D13B689B6823F07F4222F478023B6993
:103EA00062F312033B613B694FF0010262F3DC43B2
:103EB0003B612AE03B685A693B689B68D31803F171
:103EC000FF323B689B68B2FBF3F39BB24FEA83532C
:103ED0004FEA93539AB23B6962F3DC433B613B691F
:103EE000C3F3C9439BB23A68926802FB03F323F021
:103EF0007F4222F478023B6962F312033B613B6923
:103F0000C3F312031A463B685A613B681B787A6810
:103F100003F114034FEA8303D3185B683A691A610B
:103F20007B68DB78012B0BD13B681B787A6803F147
:103F300014034FEA8303D3185B683A6812695A6125
:103F40003B68DB78012B0CD13B685B79002B04D0FC
:103F50007B6943F000537B6103E07B6943F080534E
:103F60007B617B6943F080637B617B6943F0004345
:103F70007B613B681B787A6803F114034FEA830383
:103F8000D3185B687A691A60FB7F184607F120072F
:103F9000BD4680BD80B489B000AF786039604FF015
:103FA0000003FB774FF00003BB614FF000033B6160
:103FB0004FF00003FB603B685B78012B70D17B689E
:103FC0009B697B617B691B683B617B691B69FB604B
:103FD0003B685B69002B08D1FB686FF30603FB604D
:103FE000FB6843F40023FB6022E03B685A693B68AE
:103FF0009B689A420ED93B689A683B685A613B6855
:104000009B68DBB203F07F03DAB2FB6862F306035E
:10401000FB6009E03B685B69DBB203F07F03DAB267
:10402000FB6862F30603FB60FB6843F40023FB605C
:10403000FA687B691A617B68DB78012B0BD13B68DE
:104040001B787A6803F104034FEA8303D3189B6853
:104050003A6812695A613B6943F080633B613B698E
:1040600043F000433B613A697B691A607B68DB7807
:10407000002B7ED13B685B69002B7AD03B681B78B4
:104080004FF0010202FA03F3BA691343BB617B6884
:104090001B697A681269516BBA690A435A6368E00E
:1040A0003B681B787A6803F114034FEA8303D31843
:1040B0005B681B683B613B681B787A6803F11403FB
:1040C0004FEA8303D3185B681B69FB603B685B693D
:1040D000002B0ED13B689B68DBB203F07F03DAB2A2
:1040E000FB6862F30603FB60FB6843F40023FB609C
:1040F00011E03B689A683B685A613B689B68DBB299
:1041000003F07F03DAB2FB6862F30603FB60FB682F
:1041100043F40023FB603B681B787A6803F11403C7
:104120004FEA8303D3185B68FA681A617B68DB780F
:10413000012B0BD13B681B787A6803F114034FEA1B
:104140008303D3185B683A6812695A613B6943F08C
:1041500080633B613B6943F000433B613B681B78F4
:104160007A6803F114034FEA8303D3185B683A6952
:104170001A60FB7F184607F12407BD4680BC7047D4
:1041800080B487B000AF786039604FF00003FB75F2
:104190004FF00003FB603B685B78012B1ED13B684E
:1041A0001B787A6803F104034FEA8303D3189B68F2
:1041B0003B613B691B68FB60FB7B23F07F03DBB249
:1041C000002B03D0FB6843F08043FB60FB6843F4A3
:1041D0000013FB60FA683B691A6013E03B681B78C8
:1041E0007A6803F114034FEA8303D3185B683B61D9
:1041F0003B691B68FB60FB6843F40013FB60FA68D3
:104200003B691A60FB7D184607F11C07BD4680BC60
:10421000704700BF80B487B000AF786039604FF05E
:104220000003FB744FF00003FB603B685B78012BDD
:104230000AD13B681B787A6803F104034FEA8303D1
:10424000D3189B687B6109E03B681B787A6803F1AF
:1042500014034FEA8303D3185B687B617B691B6897
:10426000FB60FB686FF35553FB603B68DB78032B07
:1042700003D03B68DB78022B03D1FB6843F080530B
:10428000FB60FA687B691A60FB7C184607F11C0723
:10429000BD4680BC704700BF80B485B000AF786079
:1042A0007B681B699B69FB607B681B69DB69FA683B
:1042B0001340FB60FB684FEA1343184607F11407ED
:1042C000BD4680BC704700BF80B485B000AF786049
:1042D0000B46FB70FB787A6803F114034FEA830303
:1042E000D3185B689B68FB607B681B695B69FA6835
:1042F0001340FB60FB68184607F11407BD4680BCFD
:10430000704700BF80B485B000AF78607B681B69E0
:104310009B69FB607B681B69DB69FA681340FB6083
:10432000FB684FEA03434FEA1343184607F11407AB
:10433000BD4680BC704700BF80B485B000AF7860D8
:104340004FF00003FB60FB6843F0C043FB60FB6879
:1043500043F40023FB60FB684FF0180262F306038E
:10436000FB607B685B6DFA681A617B68DB78012B08
:1043700017D14FF00003BB607B685B6D7A6802F277
:10438000CC525A617B685B6D1B68BB60BB6843F0B5
:104390000043BB604FF08023BB607B685B6DBA68F5
:1043A0001A6007F11407BD4680BC704780B584B021
:1043B00000AF78600B46FB70FB7878681946FEF713
:1043C000A9FE7B684FF0010283F812217B684FF051
:1043D000000283F814214FF00003FB602DE0FA681F
:1043E00013464FEA83039B184FEAC30303F58C730C
:1043F0007A68D31803F10403BB60BB684FF0010275
:104400005A70FB68DAB2BB681A70FB689AB2BB6874
:10441000DA80BB684FF00002DA70BB684FF04002F0
:104420009A60BB684FF00002DA60BB684FF0000290
:104430005A61FB6803F10103FB607B685B781A46F5
:10444000FB689A42CBD84FF00003FB602DE0FA687E
:1044500013464FEA83039B184FEAC30303F55C73CB
:104460007A68D31803F10403BB60BB684FF0000205
:104470005A70FB68DAB2BB681A70FB689AB2BB6804
:10448000DA80BB684FF00002DA70BB684FF0400280
:104490009A60BB684FF00002DA60BB684FF0000220
:1044A0005A61FB6803F10103FB607B685B781A4685
:1044B000FB689A42CBD87868FEF7C8FF7868FEF7A9
:1044C00003FF78684FF00001FFF756F87868FFF7B0
:1044D000DBF87868FEF79CFF07F11007BD4680BD4A
:1044E00080B584B000AF7860F9703A80BB70FB781B
:1044F0005BB2002B10DAFB7803F07F0213464FEA21
:1045000083039B184FEAC30303F58C737A68D318AF
:1045100003F10403FB600FE0FB7803F07F02134616
:104520004FEA83039B184FEAC30303F55C737A6871
:10453000D31803F10403FB60FB7803F07F03DAB2C6
:10454000FB681A70FB784FEAD313DBB21A46FB689C
:104550005A703A88FB689A60FB68BA78DA70FB6830
:104560005B78002B04D0FB681B781A46FB68DA8066
:10457000BB78022B03D1FB684FF000021A717868F8
:10458000F968FFF7CBFA4FF00003184607F1100760
:10459000BD4680BD80B584B000AF78600B46FB702F
:1045A000FB785BB2002B10DAFB7803F07F02134636
:1045B0004FEA83039B184FEAC30303F58C737A68B1
:1045C000D31803F10403FB600FE0FB7803F07F02D4
:1045D00013464FEA83039B184FEAC30303F55C734A
:1045E0007A68D31803F10403FB60FB7803F07F03C0
:1045F000DAB2FB681A70FB784FEAD313DBB21A46C3
:10460000FB685A707868F968FFF704FB4FF0000305
:10461000184607F11007BD4680BD00BF80B586B0C3
:1046200000AFF8607A600A46FA723B81FB7A03F0C9
:104630007F0213464FEA83039B184FEAC30303F537
:104640005C73FA68D31803F104037B617B697A68B1
:10465000DA603A897B695A617B694FF000029A619E
:104660007B694FF000025A70FB7A03F07F03DAB2E5
:104670007B691A70FB68DB78012B02D17A687B6951
:104680001A617B691B78002B04D1F8687969FFF700
:1046900081FC03E0F8687969FFF70EFB4FF0000337
:1046A000184607F11807BD4680BD00BF80B586B02B
:1046B00000AFF8607A603B600B46FB72FB7A03F058
:1046C0007F0213464FEA83039B184FEAC30303F5A7
:1046D0008C73FA68D31803F104037B617B694FF094
:1046E00001025A70FB7A03F07F03DAB27B691A7019
:1046F0007B697A68DA607A687B691A617B694FF056
:1047000000029A617B693A685A617B691B78002BC9
:1047100004D1F8687969FFF73DFC03E0F86879692E
:10472000FFF7CAFA4FF00003184607F11807BD4615
:1047300080BD00BF80B584B000AF78600B46FB70D1
:10474000FB785BB2002B10DAFB7803F07F02134694
:104750004FEA83039B184FEAC30303F58C737A680F
:10476000D31803F10403FB600DE0FA7813464FEA17
:1047700083039B184FEAC30303F55C737A68D3186D
:1047800003F10403FB60FB684FF001029A70FB78B1
:1047900003F07F03DAB2FB681A70FB784FEAD31399
:1047A000DBB21A46FB685A707868F968FFF7E8FCD4
:1047B0004FF00003184607F11007BD4680BD00BF4B
:1047C00080B584B000AF78600B46FB70FB785BB2BD
:1047D000002B10DAFB7803F07F0213464FEA8303C5
:1047E0009B184FEAC30303F58C737A68D31803F15F
:1047F0000403FB600DE0FA7813464FEA83039B182D
:104800004FEAC30303F55C737A68D31803F104031A
:10481000FB60FB684FF000029A70FB7803F07F03A7
:10482000DAB2FB681A70FB784FEAD313DBB21A4690
:10483000FB685A707868F968FFF7ECFC4FF00003EA
:10484000184607F11007BD4680BD00BF80B485B093
:1048500000AF78600B46FB704FF00003FB60FB7805
:1048600003F07F03DAB2FB6862F30A13FB607B6834
:104870001B697A6812691168FA680A431A6007F1BD
:104880001407BD4680BC704780B586B000AF786025
:104890004FF000037B617868FEF7B0FE0346002B03
:1048A00000F0B8807868FEF7BBFE03463B613B69C9
:1048B000002B02D14FF00003ADE0BB7C03F00803F6
:1048C000DBB2002B06D0786800F070FA03467A69F4
:1048D00013437B61BB7C03F00403DBB2002B06D0E7
:1048E000786800F08BF903467A6913437B613B7C5F
:1048F00003F00203DBB2002B0AD04FF00003FB6091
:10490000FB6843F00203FB607B68DB68FA685A616E
:10491000FB7C23F07F03DBB2002B06D0786800F02D
:10492000BFF803467A6913437B617B7C03F008037D
:10493000DBB2002B06D0786800F0F8F803467A69FD
:1049400013437B613B7C03F00803DBB2002B06D0F2
:10495000786800F0EDFA03467A6913437B613B7C8B
:1049600003F01003DBB2002B06D0786800F0FEFAEB
:1049700003467A6913437B617B7C03F01003DBB24F
:10498000002B06D0786800F015FC03467A691343C3
:104990007B617B7C03F02003DBB2002B06D07868C0
:1049A00000F0B4FC03467A6913437B61BB7C03F0DF
:1049B0001003DBB2002B06D0786800F0BDFD034683
:1049C0007A6913437B61BB7C03F02003DBB2002BCD
:1049D00006D0786800F0CEFD03467A6913437B6108
:1049E000FB7C03F04003DBB2002B06D0786800F0BC
:1049F00017F803467A6913437B613B7C03F0040399
:104A0000DBB2002B06D0786800F028F803467A69FC
:104A100013437B617B69184607F11807BD4680BDCB
:104A200080B584B000AF786040F25413C2F2000346
:104A30001B685B6A786898474FF00003FB60FB686F
:104A400043F08043FB607B68DB68FA685A614FF093
:104A50000103184607F11007BD4680BD80B584B03C
:104A600000AF78607B68DB685B68FB603B7B03F0D2
:104A70000403DBB2002B07D040F25413C2F2000350
:104A80001B689B6A786898477B68DB68FA685A609D
:104A90004FF00103184607F11007BD4680BD00BF67
:104AA00080B586B000AF78607B689B7A002B11D010
:104AB0007B68D3F80C311B68FB60FB686FF3410324
:104AC000FB60FB686FF30003FB607B68D3F80C317D
:104AD000FA681A604FF000033B613B6943F0010341
:104AE0003B617B681B697A68126951683A696FEAB1
:104AF00002020A405A6040F25413C2F200031B68DB
:104B00009B69786898474FF000037B617B6943F0AD
:104B100000437B617B68DB687A695A614FF001036F
:104B2000184607F11807BD4680BD00BF80B586B0A6
:104B300000AF78604FF00003FB727B6893F812318E
:104B4000FB7240F25413C2F200031B685B69786881
:104B500098477B681B699B68FB604FF000037B6193
:104B60007B6943F400637B617B68DB687A695A6127
:104B70007B689B7A002B39D03B7B03F00103DBB2CF
:104B8000002B33D07B6893F81531012B2ED1FB7AA3
:104B9000DBB2032B2AD14FF000033B613B6943F0AA
:104BA00001033B617B68D3F80C317A68D2F80C21A1
:104BB00011683A690A431A603B6943F002033B619A
:104BC0007B68D3F80C317A68D2F80C2111683A6905
:104BD0000A431A604FF46D43CEF200034FF46D4266
:104BE000CEF20002126942F006021A614FF0010390
:104BF000184607F11807BD4680BD00BF80B586B0D6
:104C000000AF78604FF000033B614FF00003BB60E2
:104C10007868FFF777FB7861BCE07B6903F00103FC
:104C2000002B00F0AF803B69DBB27868194600F0DA
:104C3000BFFC0346BB603B7A03F00103DBB2002BF1
:104C40003AD03B694FF0010202FA03F3FB607B6844
:104C50001B697A681269516BFA686FEA02020A40AE
:104C60005A634FF00003BB60BB6843F00103BB60B5
:104C70007A683B6903F104034FEA8303D3189B6806
:104C8000BA689A6040F25413C2F200031B685B6872
:104C90003A69D2B27868114698477B68DB78012B75
:104CA0000AD13B69002B07D17B6893F81131042BA3
:104CB00002D17868FFF740FB3B7A03F00803DBB2D0
:104CC000002B10D04FF00003BB60BB6843F008031B
:104CD000BB607A683B6903F104034FEA8303D3188E
:104CE0009B68BA689A603B7A03F01003DBB2002B32
:104CF00010D04FF00003BB60BB6843F01003BB60F3
:104D00007A683B6903F104034FEA8303D3189B6875
:104D1000BA689A603B7A03F04003DBB2002B10D0F4
:104D20004FF00003BB60BB6843F04003BB607A6890
:104D30003B6903F104034FEA8303D3189B68BA6805
:104D40009A603B7A03F00203DBB2002B10D04FF0E5
:104D50000003BB60BB6843F00203BB607A683B6939
:104D600003F104034FEA8303D3189B68BA689A607F
:104D70003B7A23F07F03DBB2002B03D078683969DC
:104D800000F080F93B6903F101033B617B694FEA65
:104D900053037B617B69002B7FF43FAF4FF001032E
:104DA000184607F11807BD4680BD00BF80B586B024
:104DB00000AF78604FF000033B614FF00003FB60F1
:104DC0007868FFF769FA7861A6E07B6903F0010370
:104DD000002B00F099803B69DBB278681946FFF739
:104DE00073FA0346FB603B7B03F00103DBB2002B4D
:104DF00054D04FF00003FB60FB6843F00103FB60FD
:104E00007A683B6903F114034FEA8303D3185B68A4
:104E1000FA689A607B68DB78012B25D17A683B6958
:104E200003F114034FEA8303D3185B681B69BB606B
:104E300079683A6913464FEA83039B184FEAC30324
:104E4000CB1803F55F731A68BB68C3F31203D11A5A
:104E500078683A6913464FEA83039B184FEAC30305
:104E6000C31803F56373196040F25413C2F20003D0
:104E70001B681B683A69D2B27868114698477B680C
:104E8000DB78012B0AD13B69002B07D17B6893F8B3
:104E90001131052B02D17868FFF74EFA3B7B03F006
:104EA0000203DBB2002B10D04FF00003FB60FB6865
:104EB00043F00203FB607A683B6903F114034FEA95
:104EC0008303D3185B68FA689A603B7B03F008039E
:104ED000DBB2002B18D040F25413C2F200031B685F
:104EE0009B68786898474FF00003FB60FB6843F0CD
:104EF0000803FB607A683B6903F114034FEA8303FC
:104F0000D3185B68FA689A603B6903F101033B615F
:104F10007B694FEA53037B617B69002B7FF455AFBC
:104F20004FF00103184607F11807BD4680BD00BFCA
:104F300080B584B000AF786040F25413C2F2000331
:104F40001B68DB68786898474FF00003FB60FB68DC
:104F500043F00803FB607B68DB68FA685A614FF036
:104F60000103184607F11007BD4680BD80B586B025
:104F700000AF78604FF000033B613B6943F01003E2
:104F80003B617B68DB687A68D26891693A696FEA4D
:104F900002020A409A617B68DB681B6AFB60FB685F
:104FA000C3F30303DBB21A4613464FEA83039B188D
:104FB0004FEAC30303F55C737A68D31803F1040363
:104FC0007B61FB68C3F34343DBB203F1FF33052B83
:104FD00046D801A252F823F061500008F14F0008B2
:104FE0006150000861500008615000083B50000803
:104FF000BA8947F6F07313409BB2002B32D07B691D
:10500000DA68FB68C3F30A139BB2786811461A4644
:10501000FEF74CF87B69DA68FB68C3F30A139BB2AE
:10502000D2187B69DA607B699A69FB68C3F30A135B
:105030009BB2D2187B699A6114E07B6803F2CC536F
:10504000786819464FF00802FEF730F87B699A69D4
:10505000FB68C3F30A139BB2D2187B699A6102E022
:1050600000BF00E000BF7B68DB687A68D2689169A6
:105070003A690A439A614FF00103184607F118078D
:10508000BD4680BD80B588B000AF786039604FF014
:105090000003FB614FF00003FB603A6813464FEAE0
:1050A00083039B184FEAC30303F58C737A68D31804
:1050B00003F104037B617B695A697B699B69D31A9D
:1050C000FB617B699A68FB699A4202D27B699B68A3
:1050D000FB61FB6903F103034FEA9303BB617A6849
:1050E0003B6803F104034FEA8303D3189B689B6971
:1050F000FB6049E07B695A697B699B69D31AFB6154
:105100007B699A68FB699A4202D27B699B68FB6162
:10511000FB6903F103034FEA9303BB617B69D96821
:105120003B68DAB2FB699BB27868FDF77BFF7B696D
:10513000DA68FB69D2187B69DA607B699A69FB6976
:10514000D2187B699A617A683B6803F104034FEADD
:105150008303D3189B689B69FB607B695A697B69F1
:105160009B699A4210D17B691B784FF0010202FAC9
:1051700003F33B617B681B697A681269516B3A697A
:105180006FEA02020A405A63BB891A46BB699A4217
:1051900009D97B699A697B695B699A4203D27B6909
:1051A0005B69002BA6D14FF00103184607F12007D9
:1051B000BD4680BD80B58AB000AF78604FF0000377
:1051C0003B614FF000033B624FF00003FB614FF087
:1051D0000003BB614FF000037B614FF00003FB60F5
:1051E0003B6943F001033B617B681B697A68126984
:1051F00051683A696FEA02020A405A6078684FF0D3
:105200000001FEF743F94FF000037B6219E07A6872
:105210007B6A03F104034FEA8303D3189B684FF0C2
:10522000FF029A607A687B6A03F114034FEA8303F2
:10523000D3185B684FF0FF029A607B6A03F10103A9
:105240007B627B685B781A467B6A9A42DFD87B6810
:105250001B694FF0FF329A613B6A4FF0010262F323
:105260000F033B623B6A4FF0010262F31F433B6254
:105270007B681B693A6ADA61FB6943F00803FB61EA
:10528000FB6943F00103FB61FB6943F00203FB612F
:105290007B681B69FA695A61BB6943F00103BB6112
:1052A000BB6943F00803BB61BB6943F00203BB6108
:1052B0007B681B69BA691A617B681B691B687B6123
:1052C0007B696FF30A137B617B681B697A691A60DB
:1052D0007868FFF731F84FF00003FB60FB6843F498
:1052E0008053FB607B68DB68FA685A6140F25413B4
:1052F000C2F200031B681B69786898474FF00103EE
:10530000184607F12807BD4680BD00BF80B58AB0AA
:1053100000AF78604FF4F443C0F603237B627868F3
:10532000FEF7ACFB07F10C03184602F0FDFE3B69EB
:105330007B627B68DB68DB68FB61FB696FF38D2355
:10534000FB617B68DB68FA69DA607868FEF762FB0C
:105350000346032B0ED17B684FF000029A707B68E6
:105360004FF400729A80FB694FF0090262F38D23BB
:10537000FB61CAE07B684FF001029A707B684FF0D6
:1053800040029A807A6A4EF2BF13C0F2E4039A4256
:105390000DD97A6A42F2FF33C0F2F4039A4206D87A
:1053A000FB694FF00E0262F38D23FB61ADE07A6A78
:1053B00042F2FF33C0F2F4039A420DD97A6A4EF6F4
:1053C000DF43C0F204139A4206D8FB694FF00D0286
:1053D00062F38D23FB6198E07A6A4EF6DF43C0F2F8
:1053E00004139A420DD97A6A4CF2FF23C0F21813C3
:1053F0009A4206D8FB694FF00C0262F38D23FB61E1
:1054000083E07A6A4CF2FF23C0F218139A420DD956
:105410007A6A42F6FF43C0F231139A4206D8FB691A
:105420004FF00B0262F38D23FB616EE07A6A42F665
:10543000FF43C0F231139A420DD97A6A4AF23F43D0
:10544000C0F24C139A4206D8FB694FF00A0262F38D
:105450008D23FB6159E07A6A4AF23F43C0F24C1354
:105460009A420DD97A6A43F2FF53C0F26E139A4200
:1054700006D8FB694FF0090262F38D23FB6144E01B
:105480007A6A43F2FF53C0F26E139A420DD97A6AD8
:105490004EF23F23C0F295139A4206D8FB694FF0B3
:1054A000080262F38D23FB612FE07A6A4EF23F23FC
:1054B000C0F295139A420DD97A6A4CF27F33C0F24A
:1054C000C9139A4206D8FB694FF0070262F38D2395
:1054D000FB611AE07A6A4CF27F33C0F2C9139A4238
:1054E0000DD97A6A46F25F03C0F20B239A4206D8BE
:1054F000FB694FF0060262F38D23FB6105E0FB6957
:105500004FF0050262F38D23FB617B68DB68FA696B
:10551000DA604FF000033B623B6A43F400533B62A6
:105520007B68DB683A6A5A614FF00103184607F15D
:105530002807BD4680BD00BF80B584B000AF78604D
:105540004FF00003FB6040F25413C2F200031B68EB
:10555000DB6978689847FB6843F48013FB607B68DD
:10556000DB68FA685A614FF00103184607F110072B
:10557000BD4680BD80B584B000AF78604FF00003B9
:10558000FB6040F25413C2F200031B681B6A786888
:105590009847FB6843F40013FB607B68DB68FA689C
:1055A0005A614FF00103184607F11007BD4680BD50
:1055B00080B487B000AF78600B46FB707B681B69D6
:1055C0001B697B617B681B695B6B3B61FB783A699C
:1055D00022FA03F34FEAC313DBB27A6913437B6108
:1055E000FB787A6803F104034FEA8303D3189B68BE
:1055F0009A687B691340FB60FB68184607F11C073B
:10560000BD4680BC704700BF80B584B000AFF86075
:105610007A603B600B46FB72F86801F0E5FBF868C6
:1056200000F01EF8FB683A68C3F8E425FB68BA6925
:10563000C3F8E825FB687A68C3F8EC25FB7AF868BC
:105640001946FEF7B3FEFB68D3F8E8351B689847A8
:10565000F86801F051FC07F11007BD4680BD00BF9E
:1056600080B483B000AF78604FF00003184607F1B4
:105670000C07BD4680BC704780B584B000AF786031
:1056800007F108037868194600F05AFF3B7A03F0E7
:105690001F03012B0AD0022B0FD0002B14D107F1CE
:1056A00008037868194600F0FBFA16E007F10803D2
:1056B0007868194600F046FB0FE007F108037868A8
:1056C000194600F075FB08E03B7A23F07F03DBB25C
:1056D00078681946FFF72EF800BF4FF00003184610
:1056E00007F11007BD4680BD80B584B000AF78607B
:1056F0000B46FB70FB78002B45D17B6803F55D738F
:10570000FB607B6893F81131032B4FD1FB68DA699A
:10571000FB689B689A4221D9FB68DA69FB689B6841
:10572000D21AFB68DA617B68DB78012B06D1FB6853
:10573000DA68FB689B68D218FB68DA60FB68DA6895
:10574000FB689968FB68DB69994238BF0B469BB2DE
:10575000786811461A4600F04FFA27E07B68D3F8C4
:10576000E4351B69002B0AD07B6893F81231032BB8
:1057700005D17B68D3F8E4351B6978689847786869
:1057800000F052FA12E07B68D3F8E4359B69002BF5
:105790000CD07B6893F81231032B07D17B68D3F8C8
:1057A000E4359B69FA787868114698474FF0000312
:1057B000184607F11007BD4680BD00BF80B584B014
:1057C00000AF78600B46FB70FB78002B40F08380C5
:1057D0007B6803F58E73FB607B6893F81131022BB5
:1057E0006BD1FB68DA69FB689B689A4225D9FB6834
:1057F000DA69FB689B68D21AFB68DA617B68DB7840
:10580000012B06D1FB68DA68FB689B68D218FB683D
:10581000DA60FB68DA68FB68DB699BB2786811467E
:105820001A4600F0ADF978684FF000014FF0000221
:105830004FF00003FEF7F2FE3FE0FB681B6AFA68D8
:105840009268B3FBF2F102FB01F29B1A002B20D10C
:10585000FB681A6AFB689B689A421AD3FB681A6A4B
:10586000FB685B6A9A4214D278684FF000014FF0EF
:10587000000200F085F9FB684FF000025A62786878
:105880004FF000014FF000024FF00003FEF7C6FE9C
:1058900013E07B68D3F8E435DB68002B0AD07B6823
:1058A00093F81231032B05D17B68D3F8E435DB681C
:1058B00078689847786800F0D5F97B6893F81631D6
:1058C000012B1BD1786800F021F87B684FF00002B3
:1058D00083F8162112E07B68D3F8E4355B69002B6E
:1058E0000CD07B6893F81231032B07D17B68D3F877
:1058F000E4355B69FA787868114698474FF0000301
:10590000184607F11007BD4680BD00BF80B483B0C4
:1059100000AF78607B681A6941F2BC53C2F20003A1
:105920001B6853604FF00003184607F10C07BD4693
:1059300080BC704780B582B000AF786078684FF067
:1059400000014FF040024FF00003FEF7C9FD7868F8
:105950004FF080014FF040024FF00003FEF7C0FD12
:105960007B684FF0010283F812217B68D3F8E83599
:105970005B687A689278104698474FF000031846A3
:1059800007F10807BD4680BD80B582B000AF7860E2
:105990007B68D3F8E8351B6998477B6893F8132137
:1059A0007B6883F812217B684FF0030283F8122191
:1059B0004FF00003184607F10807BD4680BD00BF41
:1059C00080B582B000AF78607B6893F812217B6865
:1059D00083F813217B684FF0040283F812217B685F
:1059E000D3F8E835DB6898474FF00003184607F115
:1059F0000807BD4680BD00BF80B582B000AF7860AB
:105A00007B68D3F8E435DB69002B05D07B68D3F8DD
:105A1000E435DB69786898474FF00003184607F1D2
:105A20000807BD4680BD00BF80B582B000AF78607A
:105A30000B46FB707B68D3F8E4351B68FA7878680E
:105A4000114698477B68D3F8E8359B6898474FF034
:105A50000003184607F10807BD4680BD80B582B037
:105A600000AF78600B46FB707B68D3F8E4355B6869
:105A7000FA787868114698474FF00003184607F106
:105A80000807BD4680BD00BF80B582B000AF78601A
:105A90007B68D3F8E4351B6A786898474FF00003B9
:105AA000184607F10807BD4680BD00BF80B582B02B
:105AB00000AF78607B68D3F8E4355B6A7868984714
:105AC0004FF00003184607F10807BD4680BD00BF30
:105AD00080B582B000AF78607B68D3F8E8355B6949
